:020000040800F2
:1000000000000220210A0008990900089F09000841
:10001000A5090008AB090008B109000800000000AC
:10002000000000000000000000000000B709000808
:10003000C509000800000000D3090008E109000814
:10004000710A0008710A0008710A0008710A0008A4
:10005000710A0008710A0008710A0008710A000894
:10006000710A0008710A0008710A0008710A000884
:10007000710A0008710A0008710A0008710A000874
:10008000710A0008710A0008710A0008710A000864
:10009000710A0008710A0008710A0008ED090008D9
:1000A000710A0008710A0008710A0008710A000844
:1000B000710A0008710A0008710A0008710A000834
:1000C000710A0008710A0008710A0008710A000824
:1000D000710A0008710A0008710A0008710A000814
:1000E000710A0008710A0008710A0008710A000804
:1000F000710A0008710A0008710A0008710A0008F4
:10010000710A0008710A0008710A0008710A0008E3
:10011000710A0008710A0008710A0008710A0008D3
:10012000710A0008710A0008710A0008710A0008C3
:10013000710A00080000000000000000710A0008B9
:10014000710A0008710A0008710A0008710A0008A3
:10015000710A0008710A0008710A0008710A000893
:10016000710A0008710A0008710A0008710A000883
:10017000710A0008710A0008710A000800000000F6
:1001800000000000710A00080000000000000000EC
:10019000710A00080000000000000000710A000859
:1001A000000000000000000000000000710A0008CC
:1001B000710A0008710A0008710A0008710A000833
:0401C000710A0008B8
:1001C40010B5054C237833B9044B13B10448AFF38D
:1001D40000800123237010BD0C00002000000000EB
:1001E4003C21000808B5034B1BB103490348AFF396
:1001F400008008BD00000000100000203C21000821
:1002040053B94AB9002908BF00281CBF4FF0FF3179
:100214004FF0FF3000F074B9ADF1080C6DE904CE75
:1002240000F006F8DDF804E0DDE9022304B07047CD
:100234002DE9F047089D04468E46002B4DD18A4295
:10024400944669D9B2FA82F252B101FA02F3C2F1C8
:10025400200120FA01F10CFA02FC41EA030E944059
:100264004FEA1C48210CBEFBF8F61FFA8CF708FB7A
:1002740016E341EA034306FB07F199420AD91CEB52
:10028400030306F1FF3080F01F81994240F21C8184
:10029400023E63445B1AA4B2B3FBF8F008FB1033CC
:1002A40044EA034400FB07F7A7420AD91CEB040401
:1002B40000F1FF3380F00A81A74240F207816444D1
:1002C400023840EA0640E41B00261DB1D440002356
:1002D400C5E900433146BDE8F0878B4209D9002DBA
:1002E40000F0EF800026C5E9000130463146BDE844
:1002F400F087B3FA83F6002E4AD18B4202D38242AE
:1003040000F2F980841A61EB030301209E46002D5C
:10031400E0D0C5E9004EDDE702B9FFDEB2FA82F2B1
:10032400002A40F09280A1EB0C014FEA1C471FFA0F
:100334008CFE0126200CB1FBF7F307FB131140EAF6
:1003440001410EFB03F0884208D91CEB010103F1C3
:10035400FF3802D2884200F2CB804346091AA4B285
:10036400B1FBF7F007FB101144EA01440EFB00FE59
:10037400A64508D91CEB040400F1FF3102D2A645BE
:1003840000F2BB800846A4EB0E0440EA03409CE75D
:10039400C6F12007B34022FA07FC4CEA030C20FA0A
:1003A40007F401FA06F31C43F9404FEA1C4900FA2A
:1003B40006F3B1FBF9F8200C1FFA8CFE09FB1811A7
:1003C40040EA014108FB0EF0884202FA06F20BD91A
:1003D4001CEB010108F1FF3A80F08880884240F26A
:1003E4008580A8F102086144091AA4B2B1FBF9F0AE
:1003F40009FB101144EA014100FB0EFE8E4508D9A9
:100404001CEB010100F1FF346CD28E456AD902382D
:10041400614440EA0840A0FB0294A1EB0E01A14212
:10042400C846A64656D353D05DB1B3EB080261EB80
:100434000E0101FA07F722FA06F3F1401F43C5E95A
:10044400007100263146BDE8F087C2F12003D84090
:100454000CFA02FC21FA03F3914001434FEA1C47D2
:100464001FFA8CFEB3FBF7F007FB10360B0C43EAC4
:10047400064300FB0EF69E4204FA02F408D91CEB74
:10048400030300F1FF382FD29E422DD90238634472
:100494009B1B89B2B3FBF7F607FB163341EA034112
:1004A40006FB0EF38B4208D91CEB010106F1FF3861
:1004B40016D28B4214D9023E6144C91A46EA004658
:1004C40038E72E46284605E70646E3E61846F8E6EA
:1004D4004B45A9D2B9EB020864EB0C0E0138A3E733
:1004E4004646EAE7204694E74046D1E7D0467BE714
:1004F400023B614432E7304609E76444023842E78C
:10050400704700BF80B500AF00F0B2FA00F01EF8EB
:1005140000F0B2F800F07AF8642000F01BFB00F061
:1005240051F9094B4FF480721A80074B01229A70DB
:10053400054BAA22DA70044800F06CF940F6B83092
:1005440000F008FBF7E700BF8000002080B594B0FE
:1005540000AF07F11C0334220021184601F0E4FD2A
:1005640007F1080300221A605A609A60DA601A617F
:1005740000237B60234B1B6C224A43F0805313649B
:10058400204B1B6C03F080537B607B6800233B6033
:100594001D4B1B6823F440431B4A43F48043136000
:1005A400194B1B6803F440433B603B680223FB6127
:1005B4000123BB621023FB6200237B6307F11C034E
:1005C400184601F05FF80346002B01D000F0ACF8A8
:1005D4000F23BB600023FB6000233B6100237B618E
:1005E4000023BB6107F108030021184600F0BAFD9F
:1005F4000346002B01D000F097F800BF5037BD46EA
:1006040080BD00BF003802400070004080B500AFDC
:10061400174B184A1A60164B4FF482725A60144BE7
:1006240000229A60124B0022DA60114B00221A61F8
:100634000F4B00225A610E4B4FF400729A610C4B1F
:100644001822DA610A4B00221A62094B00225A620C
:10065400074B00229A62064B0A22DA62044801F030
:10066400AFFA0346002B01D000F05EF800BF80BD56
:10067400280000200030014080B588B000AF07F1A9
:100684000C0300221A605A609A60DA601A6100232F
:10069400BB60234B1B6B224A43F001031363204BC3
:1006A4001B6B03F00103BB60BB6800237B601C4B26
:1006B4001B6B1B4A43F002031363194B1B6B03F0C0
:1006C40002037B607B6801224021164800F00CFD88
:1006D4002023FB604FF404133B6101237B6107F18A
:1006E4000C0319460F4800F06BFB4023FB60012309
:1006F4003B6100237B610223BB6107F10C031946B4
:10070400084800F05DFB00220021172000F021FBC7
:10071400172000F03AFB00BF2037BD4680BD00BF64
:10072400003802400004024080B400AF72B600BF3B
:10073400FEE7000080B584B000AF03460A46FB71B3
:100744001346BB7102233B73FB797B73BB79BB7389
:1007540000224021094800F0C7FC07F10C01642382
:100764000322074801F0B5FA01224021034800F0B2
:10077400BBFC00BF1037BD4680BD00BF0004024073
:100784002800002080B582B000AFC023FB71002296
:1007940040210A4800F0A8FCF91D642301220848FE
:1007A40001F097FA01224021044800F09DFC0A2040
:1007B40000F0D0F900BF0837BD4680BD00040240F8
:1007C4002800002080B500AFFFF7DCFF80210F2058
:1007D400FFF7B0FF0A2000F0BDF900212A20FFF73F
:1007E400A9FF90212920FFF7A5FF02212820FFF768
:1007F400A1FF01212B20FFF79DFF60216020FFF75F
:1008040099FF00210F20FFF795FF0A2000F0A2F9BD
:1008140000BF80BD80B584B000AF78607B681B8862
:10082400DB089BB2DBB219463120FFF783FF7B68FC
:100834001B88DBB25B01DBB219463220FFF77AFF7B
:100844007B689B7803F00F03DBB219463520FFF772
:1008540071FF0023FB730CE0FB7B3633D8B2FB7BC8
:100864007A681344DB781946FFF764FFFB7B013396
:10087400FB737B689B78FA7B9A42EDD38123BB732D
:1008840000224021094800F02FFC07F10E016423E7
:100894000122074801F01DFA01224021034800F01B
:1008A40023FC012318461037BD4680BD00040240D6
:1008B4002800002080B483B000AF00237B60104B7D
:1008C4005B6C0F4A43F4804353640D4B5B6C03F43D
:1008D40080437B607B6800233B60094B1B6C084AA8
:1008E40043F080531364064B1B6C03F080533B604E
:1008F4003B6800BF0C37BD465DF8047B704700BF02
:100904000038024080B58AB000AF786007F1140364
:1009140000221A605A609A60DA601A617B681B6868
:10092400194A93422BD100233B61184B5B6C174A45
:1009340043F480535364154B5B6C03F480533B6165
:100944003B690023FB60114B1B6B104A43F001030E
:1009540013630E4B1B6B03F00103FB60FB68E02386
:100964007B610223BB610023FB6103233B620523FC
:100974007B6207F114031946054800F021FA00BF11
:100984002837BD4680BD00BF00300140003802401A
:100994000000024080B400AFFEE780B400AFFEE781
:1009A40080B400AFFEE780B400AFFEE780B400AFD0
:1009B400FEE780B400AF00BFBD465DF8047B70471E
:1009C40080B400AF00BFBD465DF8047B704780B4BF
:1009D40000AF00BFBD465DF8047B704780B500AF33
:1009E40000F098F800BF80BD80B500AF202000F073
:1009F40095FB00BF80BD000080B400AF064BD3F868
:100A04008830054A43F47003C2F8883000BFBD46FD
:100A14005DF8047B704700BF00ED00E0DFF834D0E0
:100A24000D480E490E4A002302E0D458C450043342
:100A3400C4188C42F9D30B4A0B4C002301E0136019
:100A44000432A242FBD3FFF7D7FF01F049FBFFF7C3
:100A540059FD704700000220000000200C00002017
:100A6400742100080C00002090000020FEE7000024
:100A740080B500AF0E4B1B680D4A43F4007313603E
:100A84000B4B1B680A4A43F480631360084B1B68D2
:100A9400074A43F480731360032000F04FF90F20DA
:100AA40000F008F8FFF706FF0023184680BD00BFDA
:100AB400003C024080B582B000AF7860124B1A68E7
:100AC400124B1B7819464FF47A73B3FBF1F3B2FB64
:100AD400F3F3184600F067F90346002B01D0012315
:100AE4000EE07B680F2B0AD8002279684FF0FF30A4
:100AF40000F02FF9064A7B681360002300E001230D
:100B040018460837BD4680BD0000002008000020BC
:100B14000400002080B400AF064B1B781A46064B35
:100B24001B681344044A136000BFBD465DF8047B90
:100B3400704700BF080000208C00002080B400AF84
:100B4400034B1B681846BD465DF8047B704700BF25
:100B54008C00002080B584B000AF7860FFF7EEFF12
:100B6400B8607B68FB60FB68B3F1FF3F05D00A4BBC
:100B74001B781A46FB681344FB6000BFFFF7DEFFD7
:100B84000246BB68D31AFA689A42F7D800BF00BF7E
:100B94001037BD4680BD00BF0800002080B485B07A
:100BA40000AF78607B6803F00703FB600C4BDB68E5
:100BB400BB60BA684FF6FF031340BB60FB681A02C0
:100BC400BB68134343F0BF6343F40033BB60044A80
:100BD400BB68D36000BF1437BD465DF8047B704723
:100BE40000ED00E080B400AF044BDB681B0A03F0A7
:100BF40007031846BD465DF8047B704700ED00E02E
:100C040080B483B000AF0346FB7197F90730002B23
:100C14000BDBFB7903F01F02074997F907305B09E7
:100C2400012000FA02F241F8232000BF0C37BD4630
:100C34005DF8047B704700BF00E100E080B483B03E
:100C440000AF03463960FB7197F90730002B0ADBCC
:100C54003B68DAB20C4997F907301201D2B20B445F
:100C640083F800230AE03B68DAB20849FB7903F011
:100C74000F03043B1201D2B20B441A7600BF0C37A7
:100C8400BD465DF8047B704700E100E000ED00E044
:100C940080B489B000AFF860B9607A60FB6803F093
:100CA4000703FB61FB69C3F10703042B28BF04237B
:100CB400BB61FB690433062B02D9FB69033B00E0EB
:100CC40000237B614FF0FF32BB6902FA03F3DA437E
:100CD400BB681A407B699A404FF0FF317B6901FA87
:100CE40003F3D9437B680B40134318462437BD46AE
:100CF4005DF8047B7047000080B582B000AF786077
:100D04007B68013BB3F1807F01D301230FE00A4AE2
:100D14007B68013B53600F214FF0FF30FFF78EFFDC
:100D2400054B00229A60044B07221A6000231846E0
:100D34000837BD4680BD00BF10E000E080B582B03A
:100D440000AF78607868FFF729FF00BF0837BD4619
:100D540080BD80B586B000AF0346B9607A60FB738E
:100D640000237B61FFF73EFF78617A68B968786990
:100D7400FFF78EFF024697F90F3011461846FFF72A
:100D84005DFF00BF1837BD4680BD80B582B000AF9F
:100D94000346FB7197F907301846FFF731FF00BF90
:100DA4000837BD4680BD80B582B000AF78607868F2
:100DB400FFF7A2FF034618460837BD4680BD000072
:100DC40080B489B000AF7860396000237B61002370
:100DD4003B610023BB610023FB6165E10122FB69E8
:100DE40002FA03F37B613B681B687A6913403B6139
:100DF4003A697B699A4240F054813B685B6803F02E
:100E04000303012B05D03B685B6803F00303022B4B
:100E140030D17B689B68BB61FB695B00032202FAEB
:100E240003F3DB43BA691340BB613B68DA68FB69CF
:100E34005B0002FA03F3BA691343BB617B68BA69C6
:100E44009A607B685B68BB610122FB6902FA03F369
:100E5400DB43BA691340BB613B685B681B0903F061
:100E64000102FB6902FA03F3BA691343BB617B68AD
:100E7400BA695A603B685B6803F00303032B17D01D
:100E84007B68DB68BB61FB695B00032202FA03F346
:100E9400DB43BA691340BB613B689A68FB695B003A
:100EA40002FA03F3BA691343BB617B68BA69DA6077
:100EB4003B685B6803F00303022B23D1FB69DA0868
:100EC4007B68083253F82230BB61FB6903F00703E7
:100ED4009B000F2202FA03F3DB43BA691340BB61A0
:100EE4003B681A69FB6903F007039B0002FA03F3EA
:100EF400BA691343BB61FB69DA087B680832B969D4
:100F040043F822107B681B68BB61FB695B0003220A
:100F140002FA03F3DB43BA691340BB613B685B68C5
:100F240003F00302FB695B0002FA03F3BA6913439B
:100F3400BB617B68BA691A603B685B6803F4403341
:100F4400002B00F0AE800023FB605D4B5B6C5C4AC1
:100F540043F4804353645A4B5B6C03F48043FB605B
:100F6400FB68584AFB699B08023352F82330BB6183
:100F7400FB6903F003039B000F2202FA03F3DB4334
:100F8400BA691340BB617B684F4A934225D07B68A2
:100F94004E4A93421FD07B684D4A934219D07B68D6
:100FA4004C4A934213D07B684B4A93420DD07B68E2
:100FB4004A4A934207D07B68494A934201D10623A7
:100FC4000CE007230AE0052308E0042306E00323DA
:100FD40004E0022302E0012300E00023FA6902F0A6
:100FE400030292009340BA691343BB613549FB691C
:100FF4009B080233BA6941F823203A4B9B68BB61D2
:101004003B69DB43BA691340BB613B685B6803F42B
:101014008013002B03D0BA693B691343BB61314A87
:10102400BB6993602F4BDB68BB613B69DB43BA69E7
:101034001340BB613B685B6803F40013002B03D0CF
:10104400BA693B691343BB61264ABB69D360254B2C
:101054005B68BB613B69DB43BA691340BB613B68B6
:101064005B6803F40033002B03D0BA693B69134374
:10107400BB611C4ABB6953601A4B1B68BB613B696B
:10108400DB43BA691340BB613B685B6803F480339C
:10109400002B03D0BA693B691343BB61114ABB6996
:1010A4001360FB690133FB61FB690F2B7FF696AE7E
:1010B40000BF00BF2437BD465DF8047B704700BF06
:1010C40000380240003801400000024000040240A1
:1010D40000080240000C02400010024000140240CC
:1010E40000180240003C014080B483B000AF786037
:1010F4000B467B8013467B707B78002B03D07A8869
:101104007B689A6103E07B881A047B689A6100BF5C
:101114000C37BD465DF8047B7047000080B582B093
:1011240000AF0346FB80084B5A69FB881340002B31
:1011340006D0054AFB885361FB88184600F006F880
:1011440000BF0837BD4680BD003C014080B483B079
:1011540000AF0346FB8000BF0C37BD465DF8047B3F
:101164007047000080B584B000AF786039607B6858
:10117400002B01D10123CCE0684B1B6803F00F0363
:101184003A689A420CD9654B3A68D2B21A70634BEA
:101194001B6803F00F033A689A4201D00123B8E0B8
:1011A4007B681B6803F00203002B20D07B681B685C
:1011B40003F00403002B05D0594B9B68584A43F4B1
:1011C400E05393607B681B6803F00803002B05D091
:1011D400534B9B68524A43F460439360504B9B6863
:1011E40023F0F0027B689B684D4913438B607B6856
:1011F4001B6803F00103002B44D07B685B68012B60
:1012040007D1474B1B6803F40033002B19D101238A
:101214007FE07B685B68022B03D07B685B68032BF1
:1012240007D13F4B1B6803F00073002B09D1012346
:101234006FE03B4B1B6803F00203002B01D1012339
:1012440067E0374B9B6823F003027B685B68344993
:1012540013438B60FFF772FCF8600AE0FFF76EFC43
:101264000246FB68D31A41F28832934201D9032320
:101274004FE02B4B9B6803F00C027B685B689B0080
:101284009A42EBD1254B1B6803F00F033A689A424C
:101294000CD2224B3A68D2B21A70204B1B6803F06E
:1012A4000F033A689A4201D0012332E07B681B683D
:1012B40003F00403002B08D0194B9B6823F4E0527D
:1012C4007B68DB68164913438B607B681B6803F0FB
:1012D4000803002B09D0124B9B6823F460427B68FF
:1012E4001B69DB000E4913438B6000F021F80246B2
:1012F4000B4B9B681B0903F00F030A49CB5C22FAD2
:1013040003F3094A1360094B1B681846FFF7D2FB25
:10131400002318461037BD4680BD00BF003C024084
:10132400003802405421000800000020040000207E
:101334002DE9B04FA6B000AF0023C7F88C300023CE
:10134400C7F894300023C7F888300023C7F88430E6
:101354000023C7F89030C84B9B6803F00C030C2B98
:1013640000F27E8101A252F823F000BFA513000809
:10137400651600086516000865160008AD13000818
:10138400651600086516000865160008B513000800
:101394006516000865160008651600081F15000884
:1013A400B64BC7F890305FE1B54BC7F890305BE1BE
:1013B400B14B5B6803F03F03C7F88C30AE4B5B68FE
:1013C40003F48003002B31D0AB4B5B689B090022F4
:1013D400BB66FA66BB6EC3F308033B6600237B66F9
:1013E400A74BD7E918452A4603FB02F200232146FE
:1013F40001FB03F31344A24A2146A1FB0212FA673C
:101404000A46BA67FA6F1344FB67D7F88C30002298
:10141400BB65FA65D7E91623D7E91E01FEF7F0FE8E
:1014240002460B461346C7F8943064E0924B5B685F
:101434009B0900223B657A653B6DC3F30803BB64DB
:101444000023FB64D7E9124522462B464FF00000E7
:101454004FF00001590141EAD261500102460B46A6
:101464002146511A3961294663EB01037B614FF030
:1014740000024FF00003D7E904AB59468B015146F3
:1014840043EA916351468A015146B2EB0108594639
:1014940063EB01094FF000024FF000034FEAC90368
:1014A40043EA58734FEAC80290469946234618EB1C
:1014B4000303BB602B4649EB0303FB604FF00002C0
:1014C4004FF00003D7E9024529468B02214643EA3F
:1014D400915321468A0210461946D7F88C300022CF
:1014E4003B647A64D7E91023FEF78AFE02460B4672
:1014F4001346C7F89430604B5B681B0C03F003037E
:1015040001335B00C7F88830D7F89420D7F88830C7
:10151400B2FBF3F3C7F89030A6E0574B5B6803F0D7
:101524003F03C7F88C30544B5B6803F48003002BF3
:101534002AD0514B5B689B090022BB63FA63BB6BE7
:10154400C3F3080000214E4B03FB01F2002300FB10
:1015540003F313444A4AA0FB02127A670A463A6725
:101564007A6F13447B67D7F88C3000223B637A632D
:10157400D7E90C23D7E91C01FEF742FE02460B46CD
:101584001346C7F894305BE03B4B5B689B09002231
:10159400BB62FA62BB6AC3F308033B6200237B624B
:1015A400D7E9088942464B464FF000004FF000014E
:1015B400590141EAD261500102460B464146B2EB61
:1015C400010A494663EB010B4FF000024FF00003A0
:1015D4004FEA8B1343EA9A634FEA8A12B2EB0A0486
:1015E40063EB0B054FF000024FF00003EB0043EAFE
:1015F4005473E20014461D464346E3183B604B46D1
:1016040045EB03037B604FF000024FF00003D7E982
:10161400004529468B02214643EA915321468A021A
:1016240010461946D7F88C300022BB61FA61D7E91D
:101634000623FEF7E5FD02460B461346C7F8943031
:101644000D4B5B681B0F03F00703C7F88430D7F812
:101654009420D7F88430B2FBF3F3C7F8903003E05A
:10166400064BC7F8903000BFD7F89030184698372B
:10167400BD46BDE8B08F00BF003802400024F4002E
:1016840040787D0180B586B000AF78607B68002B20
:1016940001D101238DE27B681B6803F00103002B59
:1016A40000F08380944B9B6803F00C03042B19D047
:1016B400914B9B6803F00C03082B06D18E4B5B689F
:1016C40003F48003B3F5800F0CD08B4B9B6803F0BD
:1016D4000C030C2B12D1884B5B6803F48003B3F525
:1016E400800F0BD1844B1B6803F40033002B5BD0B9
:1016F4007B685B68002B57D101235AE27B685B68E7
:10170400B3F5803F06D17C4B1B687B4A43F480339E
:1017140013601DE07B685B68B3F5A02F0CD1764B9A
:101724001B68754A43F480231360734B1B68724A29
:1017340043F4803313600BE06F4B1B686E4A23F451
:10174400803313606C4B1B686B4A23F48023136053
:101754007B685B68002B13D0FFF7F0F9386108E071
:10176400FFF7ECF902463B69D31A642B01D9032332
:101774001FE2614B1B6803F40033002BF0D014E02C
:10178400FFF7DCF9386108E0FFF7D8F902463B6956
:10179400D31A642B01D903230BE2574B1B6803F4C0
:1017A4000033002BF0D100E000BF7B681B6803F01E
:1017B4000203002B6FD0504B9B6803F00C03002BEB
:1017C40017D04D4B9B6803F00C03082B05D14A4BF3
:1017D4005B6803F48003002B0BD0474B9B6803F03A
:1017E4000C030C2B1CD1444B5B6803F48003002BCB
:1017F40016D1414B1B6803F00203002B05D07B6814
:10180400DB68012B01D00123D3E13B4B1B6823F0A0
:10181400F8027B681B69DB00374913430B603AE02D
:101824007B68DB68002B20D0344B01221A60FFF761
:1018340085F9386108E0FFF781F902463B69D31A5C
:10184400022B01D90323B4E12B4B1B6803F00203E1
:10185400002BF0D0284B1B6823F0F8027B681B692F
:10186400DB00254913430B6015E0244B00221A606A
:10187400FFF764F9386108E0FFF760F902463B6955
:10188400D31A022B01D9032393E11B4B1B6803F0EA
:101894000203002BF0D17B681B6803F00803002BC4
:1018A40036D07B685B69002B16D0154B01221A6079
:1018B400FFF744F9386108E0FFF740F902463B6955
:1018C400D31A022B01D9032373E10B4B5B6F03F093
:1018D4000203002BF0D01BE0094B00221A60FFF733
:1018E4002DF938610EE0FFF729F902463B69D31A56
:1018F400022B07D903235CE1003802400000474271
:10190400800E47428A4B5B6F03F00203002BEAD13F
:101914007B681B6803F00403002B00F0978000230E
:10192400FB75834B1B6C03F08053002B0FD10023FA
:10193400BB607F4B1B6C7E4A43F0805313647C4B2B
:101944001B6C03F08053BB60BB680123FB75794BB0
:101954001B6803F48073002B18D1764B1B68754AFF
:1019640043F480731360FFF7E9F8386108E0FFF788
:10197400E5F802463B69D31A022B01D9032318E187
:101984006C4B1B6803F48073002BF0D07B689B685E
:10199400012B06D1664B1B6F654A43F001031367A5
:1019A4001CE07B689B68052B0CD1614B1B6F604A64
:1019B40043F0040313675E4B1B6F5D4A43F001035E
:1019C40013670BE05A4B1B6F594A23F0010313674B
:1019D400574B1B6F564A23F0040313677B689B68BD
:1019E400002B15D0FFF7AAF838610AE0FFF7A6F834
:1019F40002463B69D31A41F28832934201D9032348
:101A0400D7E04B4B1B6F03F00203002BEED014E026
:101A1400FFF794F838610AE0FFF790F802463B6953
:101A2400D31A41F28832934201D90323C1E0404BD7
:101A34001B6F03F00203002BEED1FB7D012B05D1BC
:101A44003B4B1B6C3A4A23F0805313647B689B69BD
:101A5400002B00F0AD80364B9B6803F00C03082B81
:101A640060D07B689B69022B45D1334B00221A60FE
:101A7400FFF764F8386108E0FFF760F802463B6955
:101A8400D31A022B01D9032393E0294B1B6803F0DB
:101A94000073002BF0D17B68DA697B681B6A1A43F8
:101AA4007B685B6A9B011A437B689B6A5B08013B0A
:101AB4001B041A437B68DB6A1B061A437B681B6B97
:101AC4001B071B4913434B601B4B01221A60FFF792
:101AD40035F8386108E0FFF731F802463B69D31A5C
:101AE400022B01D9032364E0114B1B6803F000733C
:101AF400002BF0D05CE0104B00221A60FFF71EF8B8
:101B0400386108E0FFF71AF802463B69D31A022B42
:101B140001D903234DE0064B1B6803F00073002B2F
:101B2400F0D145E07B689B69012B07D1012340E09C
:101B34000038024000700040600047421F4B5B6861
:101B4400FB607B689B69012B30D0FB6803F4800247
:101B54007B68DB699A4229D1FB6803F03F027B680A
:101B64001B6A9A4222D1FA6847F6C07313407A6816
:101B7400526A9201934219D1FB6803F440327B68A4
:101B84009B6A5B08013B1B049A420FD1FB6803F07C
:101B940070627B68DB6A1B069A4207D1FB6803F01C
:101BA400E0427B681B6B1B079A4201D0012300E0D3
:101BB400002318461837BD4680BD00BF00380240D8
:101BC40080B582B000AF78607B68002B01D101231F
:101BD4007BE07B685B6A002B08D17B685B68B3F5AC
:101BE400827F09D07B680022DA6105E07B680022ED
:101BF4001A617B6800225A617B6800229A627B68C2
:101C040093F85130DBB2002B06D17B68002283F8B5
:101C140050207868FEF776FE7B68022283F8512014
:101C24007B681B681A687B681B6822F040021A6094
:101C34007B685B6803F482727B689B6803F40443EB
:101C44001A437B68DB6803F400631A437B681B69EF
:101C540003F002031A437B685B6903F001031A4330
:101C64007B689B6903F400731A437B68DB6903F0A8
:101C740038031A437B681B6A03F0800342EA0301BA
:101C84007B689B6A03F400527B681B680A431A60F2
:101C94007B689B691B0C03F004017B685B6A03F09F
:101CA40010027B681B680A435A607B681B68DA6908
:101CB4007B681B6822F40062DA617B6800225A6543
:101CC4007B68012283F85120002318460837BD465B
:101CD40080BD80B588B000AFF860B9603B60134642
:101CE400FB800023FB77FB6893F85030012B01D174
:101CF400022326E1FB68012283F85020FEF71EFF31
:101D0400B861FB88FB82FB6893F85130DBB2012B8E
:101D140002D00223FB770BE1BB68002B02D0FB88C7
:101D2400002B02D10123FB7702E1FB68032283F835
:101D34005120FB6800225A65FB68BA681A63FB6885
:101D4400FA889A86FB68FA88DA86FB6800229A6326
:101D5400FB6800229A87FB680022DA87FB6800226E
:101D64005A64FB6800221A64FB689B68B3F5004F51
:101D74000FD1FB681B681A68FB681B6822F04002DD
:101D84001A60FB681B681A68FB681B6842F480428F
:101D94001A60FB681B681B6803F04003402B07D0E4
:101DA400FB681B681A68FB681B6842F040021A60F3
:101DB400FB68DB68B3F5006F4BD1FB685B68002BF5
:101DC40002D0FB8A012B3ED1FB681B6B1A88FB688F
:101DD4001B68DA60FB681B6B9A1CFB681A63FB6860
:101DE400DB8E9BB2013B9AB2FB68DA862BE0FB6880
:101DF4001B689B6803F00203022B12D1FB681B6B68
:101E04001A88FB681B68DA60FB681B6B9A1CFB680A
:101E14001A63FB68DB8E9BB2013B9AB2FB68DA86DD
:101E240011E0FEF78BFE0246BB69D31A3A689A4268
:101E340003D83B68B3F1FF3F02D13B68002B02D1CA
:101E44000323FB7774E0FB68DB8E9BB2002BCED1BF
:101E54004CE0FB685B68002B02D0FB8A012B40D16D
:101E6400FB681A6BFB681B680C3312781A70FB68EA
:101E74001B6B5A1CFB681A63FB68DB8E9BB2013B2D
:101E84009AB2FB68DA862CE0FB681B689B6803F057
:101E94000203022B13D1FB681A6BFB681B680C331B
:101EA40012781A70FB681B6B5A1CFB681A63FB6878
:101EB400DB8E9BB2013B9AB2FB68DA8611E0FEF737
:101EC4003DFE0246BB69D31A3A689A4203D83B687E
:101ED400B3F1FF3F02D13B68002B02D10323FB7710
:101EE40026E0FB68DB8E9BB2002BCDD1BA69396842
:101EF400F86800F0B3F80346002B02D0FB682022F8
:101F04005A65FB689B68002B0AD100233B61FB6880
:101F14001B68DB683B61FB681B689B683B613B6932
:101F2400FB685B6D002B02D00123FB7700E000BF50
:101F3400FB68012283F85120FB68002283F85020BB
:101F4400FB7F18462037BD4680BD000080B588B0B1
:101F540000AFF860B9603B601346FB71FEF7EEFD1D
:101F64000246BB6A9B1A3A681344FB61FEF7E6FD1E
:101F7400B861394B1B685B011B0DFA6902FB03F363
:101F84007B6154E03B68B3F1FF3F50D0FEF7D6FDD0
:101F94000246BB69D31AFA699A4202D9FB69002B3B
:101FA4003DD1FB681B685A68FB681B6822F0E0029D
:101FB4005A60FB685B68B3F5827F11D1FB689B684C
:101FC400B3F5004F04D0FB689B68B3F5806F07D16D
:101FD400FB681B681A68FB681B6822F040021A60E1
:101FE400FB689B6AB3F5005F0FD1FB681B681A6836
:101FF400FB681B6822F400521A60FB681B681A68AD
:10200400FB681B6842F400521A60FB68012283F8E3
:102014005120FB68002283F85020032317E07B69DA
:10202400002B01D10023FB617B69013B7B61FB68D1
:102034001B689A68BB681340BA689A420CBF0123B4
:102044000023DBB21A46FB799A429BD1002318463F
:102054002037BD4680BD00BF0000002080B588B099
:1020640002AFF860B9607A601B4B1B681B4AA2FB85
:1020740003235B0D4FF47A7202FB03F37B61FB686D
:102084005B68B3F5827F12D17B680093BB68002242
:102094008021F868FFF75AFF0346002B16D0FB682F
:1020A4005B6D43F02002FB685A6503230FE07B69F4
:1020B400002B0AD07B69013B7B61FB681B689B6832
:1020C40003F08003802BF2D000E000BF0023184609
:1020D4001837BD4680BD00BF00000020819F5E16FA
:1020E40070B50D4D0D4C641BA4100026A64209D1F9
:1020F4000B4D0C4C00F020F8641BA4100026A642E3
:1021040005D170BD55F8043B98470136EEE755F804
:10211400043B98470136F2E76C2100086C21000863
:102124006C2100087021000802440346934200D148
:10213400704703F8011BF9E7F8B500BFF8BC08BC09
:102144009E467047F8B500BFF8BC08BC9E46704771
:102154000000000000000000010203040607080953
:08216400D0E0FF7F0100000044
:04216C00E90100087D
:04217000C50100089D
:0C2174000024F400100000000100000036
:0400000508000A21C4
:00000001FF
