:020000040800F2
:100000000000022059080008E1070008E70700087F
:10001000ED070008F3070008F907000800000000DA
:10002000000000000000000000000000FF070008C2
:100030000D080008000000001B080008290800083F
:10004000A9080008A9080008A9080008A9080008CC
:10005000A9080008A9080008A9080008A9080008BC
:10006000A9080008A9080008A9080008A9080008AC
:10007000A9080008A9080008A9080008A90800089C
:10008000A9080008A9080008A9080008A90800088C
:10009000A9080008A9080008A9080008A90800087C
:1000A000A9080008A9080008A9080008A90800086C
:1000B000A9080008A9080008A9080008A90800085C
:1000C000A9080008A9080008A9080008A90800084C
:1000D000A9080008A9080008A9080008A90800083C
:1000E000A9080008A9080008A9080008A90800082C
:1000F000A9080008A9080008A9080008A90800081C
:10010000A9080008A9080008A9080008A90800080B
:10011000A9080008A9080008A9080008A9080008FB
:10012000A9080008A9080008A9080008A9080008EB
:10013000A90800080000000000000000A90800084D
:10014000A9080008A9080008A9080008A9080008CB
:10015000A9080008A9080008A9080008A9080008BB
:10016000A9080008A9080008A9080008A9080008AB
:10017000A9080008A9080008A90800080000000054
:1001800000000000A90800080000000000000000B6
:10019000A90800080000000000000000A9080008ED
:1001A000000000000000000000000000A908000896
:1001B000A9080008A9080008A9080008A90800085B
:0401C000A908000882
:1001C40010B5054C237833B9044B13B10448AFF38D
:1001D40000800123237010BD0C00002000000000EB
:1001E4009425000808B5034B1BB103490348AFF33A
:1001F400008008BD000000001000002094250008C5
:1002040053B94AB9002908BF00281CBF4FF0FF3179
:100214004FF0FF3000F074B9ADF1080C6DE904CE75
:1002240000F006F8DDF804E0DDE9022304B07047CD
:100234002DE9F047089D04468E46002B4DD18A4295
:10024400944669D9B2FA82F252B101FA02F3C2F1C8
:10025400200120FA01F10CFA02FC41EA030E944059
:100264004FEA1C48210CBEFBF8F61FFA8CF708FB7A
:1002740016E341EA034306FB07F199420AD91CEB52
:10028400030306F1FF3080F01F81994240F21C8184
:10029400023E63445B1AA4B2B3FBF8F008FB1033CC
:1002A40044EA034400FB07F7A7420AD91CEB040401
:1002B40000F1FF3380F00A81A74240F207816444D1
:1002C400023840EA0640E41B00261DB1D440002356
:1002D400C5E900433146BDE8F0878B4209D9002DBA
:1002E40000F0EF800026C5E9000130463146BDE844
:1002F400F087B3FA83F6002E4AD18B4202D38242AE
:1003040000F2F980841A61EB030301209E46002D5C
:10031400E0D0C5E9004EDDE702B9FFDEB2FA82F2B1
:10032400002A40F09280A1EB0C014FEA1C471FFA0F
:100334008CFE0126200CB1FBF7F307FB131140EAF6
:1003440001410EFB03F0884208D91CEB010103F1C3
:10035400FF3802D2884200F2CB804346091AA4B285
:10036400B1FBF7F007FB101144EA01440EFB00FE59
:10037400A64508D91CEB040400F1FF3102D2A645BE
:1003840000F2BB800846A4EB0E0440EA03409CE75D
:10039400C6F12007B34022FA07FC4CEA030C20FA0A
:1003A40007F401FA06F31C43F9404FEA1C4900FA2A
:1003B40006F3B1FBF9F8200C1FFA8CFE09FB1811A7
:1003C40040EA014108FB0EF0884202FA06F20BD91A
:1003D4001CEB010108F1FF3A80F08880884240F26A
:1003E4008580A8F102086144091AA4B2B1FBF9F0AE
:1003F40009FB101144EA014100FB0EFE8E4508D9A9
:100404001CEB010100F1FF346CD28E456AD902382D
:10041400614440EA0840A0FB0294A1EB0E01A14212
:10042400C846A64656D353D05DB1B3EB080261EB80
:100434000E0101FA07F722FA06F3F1401F43C5E95A
:10044400007100263146BDE8F087C2F12003D84090
:100454000CFA02FC21FA03F3914001434FEA1C47D2
:100464001FFA8CFEB3FBF7F007FB10360B0C43EAC4
:10047400064300FB0EF69E4204FA02F408D91CEB74
:10048400030300F1FF382FD29E422DD90238634472
:100494009B1B89B2B3FBF7F607FB163341EA034112
:1004A40006FB0EF38B4208D91CEB010106F1FF3861
:1004B40016D28B4214D9023E6144C91A46EA004658
:1004C40038E72E46284605E70646E3E61846F8E6EA
:1004D4004B45A9D2B9EB020864EB0C0E0138A3E733
:1004E4004646EAE7204694E74046D1E7D0467BE714
:1004F400023B614432E7304609E76444023842E78C
:10050400704700BF80B586B002AF00F0CDF900F0AF
:1005140039F800F0D3F800F0A3F80023BB800023DF
:10052400FB814FF00003BB602623FB803A1DF98852
:100534004FF47A73009302230F4800F009FE3B79CD
:100544001B021AB27B791BB213431BB2FB81FB89DA
:1005540007EE903AB8EE677ADFED086AC7EE267ABE
:100564009FED077A67EE877AC7ED027A4FF4FA7047
:1005740000F00CFADAE700BF2800002000F07F4505
:100584003333534080B594B000AF07F11C033422D9
:100594000021184601F0F4FF07F1080300221A6055
:1005A4005A609A60DA601A6100237B602A4B1B6CE4
:1005B400294A43F080531364274B1B6C03F0805388
:1005C4007B607B6800233B60244B1B6823F440431F
:1005D400224A43F480431360204B1B6803F44043D6
:1005E4003B603B680223FB610123BB621023FB6277
:1005F40002237B630023BB631023FB634FF4A873C4
:100604003B6404237B640223BB640223FB6407F181
:100614001C03184601F0F2FC0346002B01D000F045
:1006240067F80F23BB600223FB6000233B614FF498
:1006340080537B610023BB6107F108030221184644
:1006440001F0A6F90346002B01D000F051F800BFD9
:100654005037BD4680BD00BF0038024000700040E6
:1006640080B500AF124B134A1A60114B124A5A60FC
:100674000F4B00229A600E4B0022DA600C4B4FF4B1
:1006840080421A610A4B00225A61094B00229A6186
:10069400074B0022DA61064B00221A62044800F07C
:1006A40013FC0346002B01D000F022F800BF80BDEC
:1006B4002800002000540040A086010080B483B0CC
:1006C40000AF00237B60094B1B6B084A43F0020315
:1006D4001363064B1B6B03F002037B607B6800BF54
:1006E4000C37BD465DF8047B704700BF00380240FC
:1006F40080B400AF72B600BFFEE7000080B582B0E0
:1007040000AF00237B60104B5B6C0F4A43F48043C3
:1007140053640D4B5B6C03F480437B607B68002364
:100724003B60094B1B6C084A43F080531364064B2F
:100734001B6C03F080533B603B68072000F0FCF91E
:1007440000BF0837BD4680BD0038024080B58AB07E
:1007540000AF786007F1140300221A605A609A60AF
:10076400DA601A617B681B68194A93422CD1002312
:100774003B61184B1B6B174A43F002031363154B81
:100784001B6B03F002033B613B694FF440737B61D5
:100794001223BB610023FB6103233B6204237B62BE
:1007A40007F1140319460C4800F0FAF90023FB6022
:1007B400084B1B6C074A43F400131364054B1B6C72
:1007C40003F40013FB60FB6800BF2837BD4680BDFF
:1007D40000540040003802400004024080B400AFDE
:1007E400FEE780B400AFFEE780B400AFFEE780B45C
:1007F40000AFFEE780B400AFFEE780B400AF00BFF7
:10080400BD465DF8047B704780B400AF00BFBD46B1
:100814005DF8047B704780B400AF00BFBD465DF84F
:10082400047B704780B500AF00F090F800BF80BD36
:1008340080B400AF064BD3F88830054A43F4700304
:10084400C2F8883000BFBD465DF8047B704700BF26
:1008540000ED00E0DFF834D00D480E490E4A0023C5
:1008640002E0D458C4500433C4188C42F9D30B4A60
:100874000B4C002301E013600432A242FBD3FFF7C8
:10088400D7FF01F059FEFFF73DFE7047000002203C
:10089400000000200C000020D42500080C000020DB
:1008A40080000020FEE7000080B500AF0E4B1B68FF
:1008B4000D4A43F4007313600B4B1B680A4A43F45C
:1008C40080631360084B1B68074A43F4807313600A
:1008D400032000F031F9002000F008F8FFF70EFFC4
:1008E4000023184680BD00BF003C024080B582B0A2
:1008F40000AF7860124B1A68124B1B7819464FF4FC
:100904007A73B3FBF1F3B2FBF3F3184600F03BF94F
:100914000346002B01D001230EE07B680F2B0AD87D
:10092400002279684FF0FF3000F011F9064A7B6825
:100934001360002300E0012318460837BD4680BD3C
:1009440000000020080000200400002080B400AF54
:10095400064B1B781A46064B1B681344044A136063
:1009640000BFBD465DF8047B704700BF080000204F
:100974007C00002080B400AF034B1B681846BD46C2
:100984005DF8047B704700BF7C00002080B584B014
:1009940000AF7860FFF7EEFFB8607B68FB60FB6830
:1009A400B3F1FF3F05D00A4B1B781A46FB6813448A
:1009B400FB6000BFFFF7DEFF0246BB68D31AFA688C
:1009C4009A42F7D800BF00BF1037BD4680BD00BFB4
:1009D4000800002080B485B000AF78607B6803F025
:1009E4000703FB600C4BDB68BB60BA684FF6FF0380
:1009F4001340BB60FB681A02BB68134343F0BF6338
:100A040043F40033BB60044ABB68D36000BF1437AF
:100A1400BD465DF8047B704700ED00E080B400AF94
:100A2400044BDB681B0A03F007031846BD465DF858
:100A3400047B704700ED00E080B483B000AF034650
:100A44003960FB7197F90730002B0ADB3B68DAB297
:100A54000C4997F907301201D2B20B4483F80023F2
:100A64000AE03B68DAB20849FB7903F00F03043B60
:100A74001201D2B20B441A7600BF0C37BD465DF8A2
:100A8400047B704700E100E000ED00E080B489B031
:100A940000AFF860B9607A60FB6803F00703FB619C
:100AA400FB69C3F10703042B28BF0423BB61FB6963
:100AB4000433062B02D9FB69033B00E000237B616E
:100AC4004FF0FF32BB6902FA03F3DA43BB681A4002
:100AD4007B699A404FF0FF317B6901FA03F3D943F4
:100AE4007B680B40134318462437BD465DF8047BEE
:100AF4007047000080B582B000AF78607B68013B2E
:100B0400B3F1807F01D301230FE00A4A7B68013BE4
:100B140053600F214FF0FF30FFF78EFF054B00228B
:100B24009A60044B07221A60002318460837BD4612
:100B340080BD00BF10E000E080B582B000AF7860F7
:100B44007868FFF747FF00BF0837BD4680BD80B512
:100B540086B000AF0346B9607A60FB7300237B6103
:100B6400FFF75CFF78617A68B9687869FFF78EFFF0
:100B7400024697F90F3011461846FFF75DFF00BF94
:100B84001837BD4680BD80B582B000AF7860786804
:100B9400FFF7B0FF034618460837BD4680BD000086
:100BA40080B489B000AF7860396000237B61002392
:100BB4003B610023BB610023FB6165E10122FB690A
:100BC40002FA03F37B613B681B687A6913403B615B
:100BD4003A697B699A4240F054813B685B6803F050
:100BE4000303012B05D03B685B6803F00303022B6E
:100BF40030D17B689B68BB61FB695B00032202FA0E
:100C040003F3DB43BA691340BB613B68DA68FB69F1
:100C14005B0002FA03F3BA691343BB617B68BA69E8
:100C24009A607B685B68BB610122FB6902FA03F38B
:100C3400DB43BA691340BB613B685B681B0903F083
:100C44000102FB6902FA03F3BA691343BB617B68CF
:100C5400BA695A603B685B6803F00303032B17D03F
:100C64007B68DB68BB61FB695B00032202FA03F368
:100C7400DB43BA691340BB613B689A68FB695B005C
:100C840002FA03F3BA691343BB617B68BA69DA6099
:100C94003B685B6803F00303022B23D1FB69DA088A
:100CA4007B68083253F82230BB61FB6903F0070309
:100CB4009B000F2202FA03F3DB43BA691340BB61C2
:100CC4003B681A69FB6903F007039B0002FA03F30C
:100CD400BA691343BB61FB69DA087B680832B969F6
:100CE40043F822107B681B68BB61FB695B0003222D
:100CF40002FA03F3DB43BA691340BB613B685B68E8
:100D040003F00302FB695B0002FA03F3BA691343BD
:100D1400BB617B68BA691A603B685B6803F4403363
:100D2400002B00F0AE800023FB605D4B5B6C5C4AE3
:100D340043F4804353645A4B5B6C03F48043FB607D
:100D4400FB68584AFB699B08023352F82330BB61A5
:100D5400FB6903F003039B000F2202FA03F3DB4356
:100D6400BA691340BB617B684F4A934225D07B68C4
:100D74004E4A93421FD07B684D4A934219D07B68F8
:100D84004C4A934213D07B684B4A93420DD07B6804
:100D94004A4A934207D07B68494A934201D10623C9
:100DA4000CE007230AE0052308E0042306E00323FC
:100DB40004E0022302E0012300E00023FA6902F0C8
:100DC400030292009340BA691343BB613549FB693E
:100DD4009B080233BA6941F823203A4B9B68BB61F4
:100DE4003B69DB43BA691340BB613B685B6803F44E
:100DF4008013002B03D0BA693B691343BB61314AAA
:100E0400BB6993602F4BDB68BB613B69DB43BA6909
:100E14001340BB613B685B6803F40013002B03D0F1
:100E2400BA693B691343BB61264ABB69D360254B4E
:100E34005B68BB613B69DB43BA691340BB613B68D8
:100E44005B6803F40033002B03D0BA693B69134396
:100E5400BB611C4ABB6953601A4B1B68BB613B698D
:100E6400DB43BA691340BB613B685B6803F48033BE
:100E7400002B03D0BA693B691343BB61114ABB69B8
:100E84001360FB690133FB61FB690F2B7FF696AEA0
:100E940000BF00BF2437BD465DF8047B704700BF28
:100EA40000380240003801400000024000040240C3
:100EB40000080240000C02400010024000140240EE
:100EC40000180240003C014080B584B000AF786057
:100ED4007B68002B01D101232BE17B6893F83D3023
:100EE400DBB2002B06D17B68002283F83C207868B3
:100EF400FFF72CFC7B68242283F83D207B681B6869
:100F04001A687B681B6822F001021A607B681B6800
:100F14001A687B681B6842F400421A607B681B688D
:100F24001A687B681B6822F400421A6000F022FEF3
:100F3400F8607B685B68814A934207D8FB68804A03
:100F4400934294BF01230023DBB206E0FB687D4A91
:100F5400934294BF01230023DBB2002B01D0012371
:100F6400E7E0FB68784AA2FB03239B0CBB607B6829
:100F74001B685B6823F03F017B681B68BA680A43FF
:100F84005A607B681B681B6A23F03F017B685B68BF
:100F94006A4A934202D8BB68013309E0BB684FF444
:100FA400967202FB03F3694AA2FB03239B090133F4
:100FB4007A6812680B4313627B681B68DB6923F44D
:100FC4004F4222F0FF027B685B685C498B4219D870
:100FD400FB68591E7B685B685B00B1FBF3F3591C2B
:100FE40040F6FC730B40002B0AD0FB68591E7B684B
:100FF4005B685B00B1FBF3F30133C3F30B0351E014
:1010040004234FE07B689B68002B11D1FB68581EBA
:101014007B6859680B465B000B44B0FBF3F3013368
:10102400C3F30B03002B0CBF01230023DBB212E03C
:10103400FB68581E7B6859680B469B000B4499005B
:101044000B44B0FBF3F30133C3F30B03002B0CBFCE
:1010540001230023DBB2002B01D0012322E07B68B3
:101064009B68002B0ED1FB68581E7B6859680B46A1
:101074005B000B44B0FBF3F30133C3F30B0343F402
:1010840000430FE0FB68581E7B6859680B469B00C1
:101094000B4499000B44B0FBF3F30133C3F30B038C
:1010A40043F44043796809681343CB617B681B6848
:1010B4001B6823F0C0017B68DA697B681B6A1A43EA
:1010C4007B681B680A431A607B681B689B6823F46F
:1010D400034323F0FF037A6811697A68D2681143E5
:1010E4007A6812680B4393607B681B68DB6823F0A3
:1010F400FF017B685A697B689B691A437B681B689C
:101104000A43DA607B681B681A687B681B6842F0D4
:1011140001021A607B6800221A647B68202283F82B
:101124003D207B6800221A637B68002283F83E20FE
:10113400002318461037BD4680BD00BFA0860100BD
:101144007F841E00FF083D0083DE1B43D34D6210E5
:1011540080B58CB002AFF8607A601A460B467B818A
:1011640013463B81FFF706FC7862FB6893F83D3039
:10117400DBB2202B40F00B827B6A009319230122FF
:101184007C49F86800F0D8FA0346002B01D002230A
:10119400FEE1FB6893F83C30012B01D10223F7E117
:1011A400FB68012283F83C20FB681B681B6803F082
:1011B4000103012B07D0FB681B681A68FB681B68D6
:1011C40042F001021A60FB681B681A68FB681B681E
:1011D40022F400621A60FB68222283F83D20FB6837
:1011E400102283F83E20FB6800221A64FB687A68A8
:1011F4005A62FB683A895A85FB685B8D9AB2FB6830
:101204001A85FB685C4ADA6279897B6A3A6BF8680A
:1012140000F0C4F90346002B01D00123B8E1FB68B8
:101224001B8D002B13D100233B62FB681B685B6999
:101234003B62FB681B689B693B623B6AFB681B68FB
:101244001A68FB681B6842F400721A608CE1FB6840
:101254001B8D012B1BD1FB681B681A68FB681B687C
:1012640022F480621A600023FB61FB681B685B69DF
:10127400FB61FB681B689B69FB61FB69FB681B687E
:101284001A68FB681B6842F400721A606CE1FB6820
:101294001B8D022B1BD1FB681B681A68FB681B683B
:1012A40022F480621A60FB681B681A68FB681B687A
:1012B40042F400621A600023BB61FB681B685B692F
:1012C400BB61FB681B689B69BB61BB694CE1FB6844
:1012D4001B681A68FB681B6842F480621A6000236A
:1012E4007B61FB681B685B697B61FB681B689B69AE
:1012F4007B617B6938E1FB681B8D032B00F2F18075
:10130400FB681B8D012B23D17A6A396BF86800F0D6
:10131400E9FA0346002B01D0012339E1FB681B687D
:101324001A69FB685B6AD2B21A70FB685B6A5A1C62
:10133400FB685A62FB681B8D013B9AB2FB681A85F5
:10134400FB685B8D9BB2013B9AB2FB685A850BE14B
:10135400FB681B8D022B4ED17B6A00933B6B0022F2
:101364000649F86800F0E8F90346002B08D0012389
:101374000EE100BF020010000000FFFF04000100A6
:10138400FB681B681A68FB681B6842F400721A60E9
:10139400FB681B681A69FB685B6AD2B21A70FB6847
:1013A4005B6A5A1CFB685A62FB681B8D013B9AB24C
:1013B400FB681A85FB685B8D9BB2013B9AB2FB68A4
:1013C4005A85FB681B681A69FB685B6AD2B21A709B
:1013D400FB685B6A5A1CFB685A62FB681B8D013B05
:1013E4009AB2FB681A85FB685B8D9BB2013B9AB28B
:1013F400FB685A85B8E07B6A00933B6B0022664920
:10140400F86800F099F90346002B01D00123BFE0EE
:10141400FB681B681A68FB681B6822F480621A6008
:10142400FB681B681A69FB685B6AD2B21A70FB68B6
:101434005B6A5A1CFB685A62FB681B8D013B9AB2BB
:10144400FB681A85FB685B8D9BB2013B9AB2FB6813
:101454005A857B6A00933B6B00224F49F86800F081
:101464006BF90346002B01D0012391E0FB681B6854
:101474001A68FB681B6842F400721A60FB681B68F8
:101484001A69FB685B6AD2B21A70FB685B6A5A1C01
:10149400FB685A62FB681B8D013B9AB2FB681A8594
:1014A400FB685B8D9BB2013B9AB2FB685A85FB6873
:1014B4001B681A69FB685B6AD2B21A70FB685B6AC4
:1014C4005A1CFB685A62FB681B8D013B9AB2FB688D
:1014D4001A85FB685B8D9BB2013B9AB2FB685A8507
:1014E40042E07A6A396BF86800F0FCF90346002B95
:1014F40001D001234CE0FB681B681A69FB685B6A36
:10150400D2B21A70FB685B6A5A1CFB685A62FB68A9
:101514001B8D013B9AB2FB681A85FB685B8D9BB2FD
:10152400013B9AB2FB685A85FB681B685B6903F050
:101534000403042B18D1FB681B681A69FB685B6AF7
:10154400D2B21A70FB685B6A5A1CFB685A62FB6869
:101554001B8D013B9AB2FB681A85FB685B8D9BB2BD
:10156400013B9AB2FB685A85FB681B8D002B7FF404
:10157400C2AEFB68202283F83D20FB68002283F87A
:101584003E20FB68002283F83C20002300E0022375
:1015940018462837BD4680BD0400010080B588B0D8
:1015A40002AFF8607A603B600B467B81FB68DB6AC4
:1015B4007B61FB681B681A68FB681B6842F48062E5
:1015C4001A607B69082B06D07B69012B03D07B69E9
:1015D40013F5803F08D1FB681B681A68FB681B6819
:1015E40042F480721A600BE0FB681B6B112B07D16D
:1015F400FB681B681A68FB681B6842F480721A60F7
:101604003B6800937B6800224FF00111F86800F0FA
:1016140093F80346002B0DD0FB681B681B6803F48A
:101624008073B3F5807F03D1FB684FF400721A64B2
:10163400032379E0FB681B69B3F5804F08D17B89EC
:10164400DBB243F00103DAB2FB681B681A615FE0A6
:101654007B89DB11DBB203F00603DBB263F00F031B
:10166400DAB2FB681B681A613B687A683049F8682B
:1016740000F0B9F80346002B01D0012354E07B8924
:10168400DAB2FB681B681A613B687A682949F86812
:1016940000F0A9F80346002B01D0012344E0002305
:1016A4003B61FB681B685B693B61FB681B689B696A
:1016B4003B613B69FB681B681A68FB681B6842F462
:1016C40080721A603B6800937B6800224FF001111E
:1016D400F86800F031F80346002B0DD0FB681B6856
:1016E4001B6803F48073B3F5807F03D1FB684FF468
:1016F40000721A64032317E07B89DB11DBB203F069
:101704000603DBB263F00E03DAB2FB681B681A61EE
:101714003B687A680749F86800F065F80346002BCF
:1017240001D0012300E0002318461837BD4680BDD0
:10173400080001000200010080B584B000AFF86029
:10174400B9603B601346FB7125E03B68B3F1FF3F92
:1017540021D0FFF70FF90246BB69D31A3A689A42BF
:1017640002D33B68002B16D1FB6800221A63FB6886
:10177400202283F83D20FB68002283F83E20FB688A
:101784001B6C43F02002FB681A64FB68002283F898
:101794003C20012323E0BB681B0CDBB2012B0DD1E1
:1017A400FB681B685B69DA43BB6813409BB2002B80
:1017B4000CBF01230023DBB21A460CE0FB681B6854
:1017C4009B69DA43BB6813409BB2002B0CBF012317
:1017D4000023DBB21A46FB799A42B6D0002318469E
:1017E4001037BD4680BD80B584B000AFF860B960E5
:1017F4007A603B6051E0FB681B685B6903F48063BB
:10180400B3F5806F23D1FB681B681A68FB681B68FB
:1018140042F400721A60FB681B686FF480625A61BC
:10182400FB6800221A63FB68202283F83D20FB68D2
:10183400002283F83E20FB681B6C43F00402FB6823
:101844001A64FB68002283F83C20012346E07B688D
:10185400B3F1FF3F21D0FFF78DF802463B68D31A5E
:101864007A689A4202D37B68002B16D1FB68002267
:101874001A63FB68202283F83D20FB68002283F86A
:101884003E20FB681B6C43F02002FB681A64FB6873
:10189400002283F83C20012320E0BB681B0CDBB250
:1018A400012B0CD1FB681B685B69DA43BB681340EE
:1018B4009BB2002B14BF01230023DBB20BE0FB68B7
:1018C4001B689B69DA43BB6813409BB2002B14BFAF
:1018D40001230023DBB2002B8DD1002318461037DF
:1018E400BD4680BD80B584B000AFF860B9607A6051
:1018F40042E0FB681B685B6903F01003102B19D1ED
:10190400FB681B686FF010025A61FB6800221A63BF
:10191400FB68202283F83D20FB68002283F83E20E8
:10192400FB681A6CFB681A64FB68002283F83C208D
:10193400012329E0FFF71EF802467B68D31ABA6830
:101944009A4202D3BB68002B16D1FB6800221A63AB
:10195400FB68202283F83D20FB68002283F83E20A8
:10196400FB681B6C43F02002FB681A64FB680022CE
:1019740083F83C20012307E0FB681B685B6903F0E4
:101984004003402BB5D1002318461037BD4680BD17
:1019940080B584B000AF786039607B68002B01D1DA
:1019A4000123CCE0684B1B6803F00F033A689A42AA
:1019B4000CD9654B3A68D2B21A70634B1B6803F0BA
:1019C4000F033A689A4201D00123B8E07B681B6890
:1019D40003F00203002B20D07B681B6803F0040390
:1019E400002B05D0594B9B68584A43F4E05393604D
:1019F4007B681B6803F00803002B05D0534B9B68DE
:101A0400524A43F460439360504B9B6823F0F002C6
:101A14007B689B684D4913438B607B681B6803F0AC
:101A24000103002B44D07B685B68012B07D1474B33
:101A34001B6803F40033002B19D101237FE07B687A
:101A44005B68022B03D07B685B68032B07D13F4B99
:101A54001B6803F00073002B09D101236FE03B4B9B
:101A64001B6803F00203002B01D1012367E0374B0D
:101A74009B6823F003027B685B68344913438B60E3
:101A8400FEF778FFF8600AE0FEF774FF0246FB6891
:101A9400D31A41F28832934201D903234FE02B4BEE
:101AA4009B6803F00C027B685B689B009A42EBD155
:101AB400254B1B6803F00F033A689A420CD2224B61
:101AC4003A68D2B21A70204B1B6803F00F033A68CD
:101AD4009A4201D0012332E07B681B6803F00403BF
:101AE400002B08D0194B9B6823F4E0527B68DB6819
:101AF400164913438B607B681B6803F00803002BB3
:101B040009D0124B9B6823F460427B681B69DB009D
:101B14000E4913438B6000F041F802460B4B9B685F
:101B24001B0903F00F030A49CB5C22FA03F3094AA9
:101B34001360094B1B681846FEF7D8FE00231846AD
:101B44001037BD4680BD00BF003C02400038024053
:101B5400AC250008000000200400002080B400AF81
:101B6400034B1B681846BD465DF8047B704700BFF5
:101B74000000002080B500AFFFF7F0FF0246054BE0
:101B84009B689B0A03F007030349CB5C22FA03F327
:101B9400184680BD00380240BC2500082DE9B04F2E
:101BA400AEB000AF0023C7F8AC300023C7F8B430A0
:101BB4000023C7F8A8300023C7F8A4300023C7F8CF
:101BC400B030CB4B9B6803F00C030C2B00F2068265
:101BD40001A252F823F000BF111C0008E11F000805
:101BE400E11F0008E11F0008191C0008E11F00089C
:101BF400E11F0008E11F0008211C0008E11F000884
:101C0400E11F0008E11F0008111E0008B94BC7F8C6
:101C1400B030E7E1B84BC7F8B030E3E1B44B5B68F0
:101C240003F03F03C7F8AC30B14B5B6803F48003A7
:101C3400002B71D0AE4B5B689B090022C7F898302B
:101C4400C7F89C20D7F89830C3F30803C7F890303E
:101C54000023C7F89430D7E9244522462B464FF099
:101C640000004FF00001590141EAD26150010246DF
:101C74000B462146511A3964294663EB01037B6400
:101C84004FF000024FF00003D7E9108949468B0159
:101C9400414643EA916341468A014146511AB96378
:101CA400494663EB0103FB634FF000024FF000036E
:101CB400D7E90E894946CB00414643EA5173414670
:101CC400CA0010461946034622469B183B632B461E
:101CD4000A4642EB03037B634FF000024FF000031C
:101CE400D7E90C4529464B02214643EAD153214604
:101CF4004A0210461946D7F8AC300022C7F888309B
:101D0400C7F88C20D7E92223FEF77AFA02460B465D
:101D14001346C7F8B43067E0754B5B689B09002233
:101D2400C7F88030C7F88420D7F88030C3F308039D
:101D3400BB670023FB67D7E91E4522462B464FF0BD
:101D440000004FF00001590141EAD26150010246FE
:101D54000B462146511AB962294663EB0103FB6223
:101D64004FF000024FF00003D7E90A8949468B017E
:101D7400414643EA916341468A014146B2EB010A76
:101D8400494663EB010B4FF000024FF000034FEAAA
:101D9400CB0343EA5A734FEACA0292469B46234650
:101DA4001AEB03033B622B464BEB03037B624FF0BE
:101DB40000024FF00003D7E9084529468B0221466B
:101DC40043EA915321468A0210461946D7F8AC30AB
:101DD40000223B677A67D7E91C23FEF711FA024613
:101DE4000B461346C7F8B430414B5B681B0C03F039
:101DF400030301335B00C7F8A830D7F8B420D7F841
:101E0400A830B2FBF3F3C7F8B030EBE0384B5B68B3
:101E140003F03F03C7F8AC30354B5B6803F4800331
:101E2400002B6BD0324B5B689B090022BB66FA66C1
:101E3400BB6EC3F308033B6600237B66D7E91845F2
:101E440022462B464FF000004FF00001590141EAB1
:101E5400D261500102460B462146511AB961294606
:101E640063EB0103FB614FF000024FF00003D7E97D
:101E740006AB59468B01514643EA916351468A01A8
:101E84005146B2EB0108594663EB01094FF00002D9
:101E94004FF000034FEAC90343EA58734FEAC802FC
:101EA40090469946234618EB03033B612B4649EBC6
:101EB40003037B614FF000024FF00003D7E90445B0
:101EC40029464B02214643EAD15321464A02104691
:101ED4001946D7F8AC300022BB65FA65D7E916235A
:101EE400FEF78EF902460B461346C7F8B43065E098
:101EF400003802400024F40000127A003D4B5B6875
:101F04009B09002218461146C0F308033B650023D1
:101F14007B65D7E9148942464B464FF000004FF0E9
:101F24000001590141EAD261500102460B46414683
:101F3400511AB960494663EB0103FB604FF000029C
:101F44004FF00003D7E902AB59468B01514643EAEF
:101F5400916351468A015146541A594663EB01056F
:101F64004FF000024FF00003EB0043EA5473E20029
:101F740014461D464346E3183B604B4645EB0303BA
:101F84007B604FF000024FF00003D7E9004529467B
:101F94008B02214643EA915321468A021046194690
:101FA400D7F8AC300022BB64FA64D7E91223FEF7F9
:101FB40027F902460B461346C7F8B4300D4B5B684D
:101FC4001B0F03F00703C7F8A430D7F8B420D7F8E1
:101FD400A430B2FBF3F3C7F8B03003E0064BC7F804
:101FE400B03000BFD7F8B0301846B837BD46BDE8AA
:101FF400B08F00BF003802400024F40080B586B0E2
:1020040000AF78607B68002B01D101238DE27B68EF
:102014001B6803F00103002B00F08380944B9B6842
:1020240003F00C03042B19D0914B9B6803F00C03B1
:10203400082B06D18E4B5B6803F48003B3F5800F45
:102044000CD08B4B9B6803F00C030C2B12D1884BE8
:102054005B6803F48003B3F5800F0BD1844B1B68DA
:1020640003F40033002B5BD07B685B68002B57D1F3
:1020740001235AE27B685B68B3F5803F06D17C4B51
:102084001B687B4A43F4803313601DE07B685B6804
:10209400B3F5A02F0CD1764B1B68754A43F480230B
:1020A4001360734B1B68724A43F4803313600BE074
:1020B4006F4B1B686E4A23F4803313606C4B1B68B0
:1020C4006B4A23F4802313607B685B68002B13D076
:1020D400FEF750FC386108E0FEF74CFC02463B6911
:1020E400D31A642B01D903231FE2614B1B6803F449
:1020F4000033002BF0D014E0FEF73CFC386108E01C
:10210400FEF738FC02463B69D31A642B01D903233A
:102114000BE2574B1B6803F40033002BF0D100E0B3
:1021240000BF7B681B6803F00203002B6FD0504B89
:102134009B6803F00C03002B17D04D4B9B6803F0F6
:102144000C03082B05D14A4B5B6803F48003002B76
:102154000BD0474B9B6803F00C030C2B1CD1444B56
:102164005B6803F48003002B16D1414B1B6803F01A
:102174000203002B05D07B68DB68012B01D001230F
:10218400D3E13B4B1B6823F0F8027B681B69DB003F
:10219400374913430B603AE07B68DB68002B20D09F
:1021A400344B01221A60FEF7E5FB386108E0FEF7C4
:1021B400E1FB02463B69D31A022B01D90323B4E1A4
:1021C4002B4B1B6803F00203002BF0D0284B1B6839
:1021D40023F0F8027B681B69DB00254913430B607D
:1021E40015E0244B00221A60FEF7C4FB386108E0B6
:1021F400FEF7C0FB02463B69D31A022B01D9032325
:1022040093E11B4B1B6803F00203002BF0D17B68A6
:102214001B6803F00803002B36D07B685B69002B36
:1022240016D0154B01221A60FEF7A4FB386108E0B2
:10223400FEF7A0FB02463B69D31A022B01D9032304
:1022440073E10B4B5B6F03F00203002BF0D01BE038
:10225400094B00221A60FEF78DFB38610EE0FEF791
:1022640089FB02463B69D31A022B07D903235CE19D
:102274000038024000004742800E47428A4B5B6FA1
:1022840003F00203002BEAD17B681B6803F004030C
:10229400002B00F097800023FB75834B1B6C03F02D
:1022A4008053002B0FD10023BB607F4B1B6C7E4AF5
:1022B40043F0805313647C4B1B6C03F08053BB606E
:1022C400BB680123FB75794B1B6803F48073002BF7
:1022D40018D1764B1B68754A43F480731360FEF77C
:1022E40049FB386108E0FEF745FB02463B69D31A17
:1022F400022B01D9032318E16C4B1B6803F4807390
:10230400002BF0D07B689B68012B06D1664B1B6FBA
:10231400654A43F0010313671CE07B689B68052B47
:102324000CD1614B1B6F604A43F0040313675E4B8F
:102334001B6F5D4A43F0010313670BE05A4B1B6F9D
:10234400594A23F001031367574B1B6F564A23F076
:10235400040313677B689B68002B15D0FEF70AFB08
:1023640038610AE0FEF706FB02463B69D31A41F2E4
:102374008832934201D90323D7E04B4B1B6F03F000
:102384000203002BEED014E0FEF7F4FA38610AE001
:10239400FEF7F0FA02463B69D31A41F288329342BF
:1023A40001D90323C1E0404B1B6F03F00203002B50
:1023B400EED1FB7D012B05D13B4B1B6C3A4A23F03C
:1023C400805313647B689B69002B00F0AD80364B0F
:1023D4009B6803F00C03082B60D07B689B69022B7D
:1023E40045D1334B00221A60FEF7C4FA386108E085
:1023F400FEF7C0FA02463B69D31A022B01D9032324
:1024040093E0294B1B6803F00073002BF0D17B6829
:10241400DA697B681B6A1A437B685B6A9B011A430F
:102424007B689B6A5B08013B1B041A437B68DB6A7D
:102434001B061A437B681B6B1B071B4913434B602A
:102444001B4B01221A60FEF795FA386108E0FEF78B
:1024540091FA02463B69D31A022B01D9032364E0A3
:10246400114B1B6803F00073002BF0D05CE0104BA1
:1024740000221A60FEF77EFA386108E0FEF77AFA65
:1024840002463B69D31A022B01D903234DE0064BC4
:102494001B6803F00073002BF0D145E07B689B6957
:1024A400012B07D1012340E00038024000700040B6
:1024B400600047421F4B5B68FB607B689B69012B94
:1024C40030D0FB6803F480027B68DB699A4229D12F
:1024D400FB6803F03F027B681B6A9A4222D1FA68C8
:1024E40047F6C07313407A68526A9201934219D135
:1024F400FB6803F440327B689B6A5B08013B1B0466
:102504009A420FD1FB6803F070627B68DB6A1B069A
:102514009A4207D1FB6803F0E0427B681B6B1B0700
:102524009A4201D0012300E0002318461837BD4623
:1025340080BD00BF0038024070B50D4D0D4C641BCA
:10254400A4100026A64209D10B4D0C4C00F020F833
:10255400641BA4100026A64205D170BD55F8043BA7
:1025640098470136EEE755F8043B98470136F2E701
:10257400CC250008CC250008CC250008D02500086F
:1025840002440346934200D1704703F8011BF9E764
:10259400F8B500BFF8BC08BC9E467047F8B500BF4C
:0825A400F8BC08BC9E4670471C
:1025AC0000000000000000000102030406070809F7
:0825BC0000000000010203040D
:0825C40070DCFF7F0100000044
:0425CC00E901000819
:0425D000C501000839
:0C25D4000024F4001000000001000000D2
:04000005080008598E
:00000001FF
