:020000040800F2
:1000000000000220E90A0008490A00084F0A000817
:10001000550A00085B0A0008610A00080000000099
:10002000000000000000000000000000670A000857
:10003000750A000800000000830A0008910A000801
:10004000390B0008390B0008390B0008390B000880
:10005000390B0008390B0008390B0008390B000870
:10006000390B0008390B0008390B0008390B000860
:10007000390B0008390B0008390B0008390B000850
:10008000390B0008390B0008390B0008390B000840
:10009000390B0008390B0008390B0008390B000830
:1000A000390B0008390B0008390B0008390B000820
:1000B000390B0008390B0008390B00089D0A0008AD
:1000C000B10A0008390B0008390B0008390B000889
:1000D000390B0008390B0008390B0008390B0008F0
:1000E000390B0008390B0008390B0008390B0008E0
:1000F000390B0008390B0008390B0008390B0008D0
:10010000390B0008390B0008390B0008390B0008BF
:10011000390B0008390B0008390B0008390B0008AF
:10012000390B0008390B0008390B0008390B00089F
:10013000390B00080000000000000000390B000827
:10014000390B0008390B0008390B0008390B00087F
:10015000390B0008390B0008390B0008390B00086F
:10016000390B0008390B0008390B0008390B00085F
:10017000390B0008390B0008390B0008000000009B
:1001800000000000390B0008000000000000000023
:10019000390B00080000000000000000390B0008C7
:1001A000000000000000000000000000390B000803
:1001B000390B0008390B0008390B0008390B00080F
:0401C000390B0008EF
:1001C40010B5054C237833B9044B13B10448AFF38D
:1001D40000800123237010BD0C00002000000000EB
:1001E4008C47000808B5034B1BB103490348AFF320
:1001F400008008BD00000000100000208C470008AB
:1002040053B94AB9002908BF00281CBF4FF0FF3179
:100214004FF0FF3000F074B9ADF1080C6DE904CE75
:1002240000F006F8DDF804E0DDE9022304B07047CD
:100234002DE9F047089D04468E46002B4DD18A4295
:10024400944669D9B2FA82F252B101FA02F3C2F1C8
:10025400200120FA01F10CFA02FC41EA030E944059
:100264004FEA1C48210CBEFBF8F61FFA8CF708FB7A
:1002740016E341EA034306FB07F199420AD91CEB52
:10028400030306F1FF3080F01F81994240F21C8184
:10029400023E63445B1AA4B2B3FBF8F008FB1033CC
:1002A40044EA034400FB07F7A7420AD91CEB040401
:1002B40000F1FF3380F00A81A74240F207816444D1
:1002C400023840EA0640E41B00261DB1D440002356
:1002D400C5E900433146BDE8F0878B4209D9002DBA
:1002E40000F0EF800026C5E9000130463146BDE844
:1002F400F087B3FA83F6002E4AD18B4202D38242AE
:1003040000F2F980841A61EB030301209E46002D5C
:10031400E0D0C5E9004EDDE702B9FFDEB2FA82F2B1
:10032400002A40F09280A1EB0C014FEA1C471FFA0F
:100334008CFE0126200CB1FBF7F307FB131140EAF6
:1003440001410EFB03F0884208D91CEB010103F1C3
:10035400FF3802D2884200F2CB804346091AA4B285
:10036400B1FBF7F007FB101144EA01440EFB00FE59
:10037400A64508D91CEB040400F1FF3102D2A645BE
:1003840000F2BB800846A4EB0E0440EA03409CE75D
:10039400C6F12007B34022FA07FC4CEA030C20FA0A
:1003A40007F401FA06F31C43F9404FEA1C4900FA2A
:1003B40006F3B1FBF9F8200C1FFA8CFE09FB1811A7
:1003C40040EA014108FB0EF0884202FA06F20BD91A
:1003D4001CEB010108F1FF3A80F08880884240F26A
:1003E4008580A8F102086144091AA4B2B1FBF9F0AE
:1003F40009FB101144EA014100FB0EFE8E4508D9A9
:100404001CEB010100F1FF346CD28E456AD902382D
:10041400614440EA0840A0FB0294A1EB0E01A14212
:10042400C846A64656D353D05DB1B3EB080261EB80
:100434000E0101FA07F722FA06F3F1401F43C5E95A
:10044400007100263146BDE8F087C2F12003D84090
:100454000CFA02FC21FA03F3914001434FEA1C47D2
:100464001FFA8CFEB3FBF7F007FB10360B0C43EAC4
:10047400064300FB0EF69E4204FA02F408D91CEB74
:10048400030300F1FF382FD29E422DD90238634472
:100494009B1B89B2B3FBF7F607FB163341EA034112
:1004A40006FB0EF38B4208D91CEB010106F1FF3861
:1004B40016D28B4214D9023E6144C91A46EA004658
:1004C40038E72E46284605E70646E3E61846F8E6EA
:1004D4004B45A9D2B9EB020864EB0C0E0138A3E733
:1004E4004646EAE7204694E74046D1E7D0467BE714
:1004F400023B614432E7304609E76444023842E78C
:10050400704700BF80B582B000AF0A4800F0EEFB30
:100514004FF0FF31074800F0EEFC064800F076FD8E
:100524000346FB80034800F0B3FCFB8818460837F9
:10053400BD4680BD2800002080B582B000AF786041
:100544000B46FB7013463B80FB78012B06D1082336
:1005540001220749786801F0BCFD05E00823022266
:100564000449786801F042FD00BF0837BD4680BDEC
:10057400C4000020C800002080B582B000AF7860BD
:10058400786801F019FE00BF0837BD4680BD80B50C
:1005940082B000AF7860786801F00EFE00BF0837C3
:1005A400BD4680BD80B582B000AF7860786801F048
:1005B40003FE00BF0837BD4680BD80B582B000AFE2
:1005C4007860786802F078F80346042B05D07868E0
:1005D40002F072F80346012B02D1786801F0ECFDB9
:1005E40000BF0837BD4680BD80B582B000AF00F0C3
:1005F400A3FA00F021F800F033F900F08BF800F0D2
:1006040001F90B4801F0D8FDFFF77CFF0346FB809E
:10061400FB881B0A9BB2DAB2064B1A70FB88DAB26B
:10062400044B5A704FF4FA7000F0F8FAECE700BF8C
:1006340070000020C800002080B594B000AF07F11E
:100644001C0334220021184604F096F807F108032D
:1006540000221A605A609A60DA601A6100237B6093
:100664002A4B1B6C294A43F080531364274B1B6CA1
:1006740003F080537B607B6800233B60244B1B6842
:1006840023F44043224A43F480431360204B1B6805
:1006940003F440433B603B680223FB610123BB62DC
:1006A4001023FB6202237B630023BB631023FB63E1
:1006B4004FF4A8733B6404237B640223BB640223CA
:1006C400FB6407F11C03184603F094FD0346002B5A
:1006D40001D000F0EDF80F23BB600223FB60002380
:1006E4003B614FF480537B610023BB6107F1080336
:1006F4000221184603F048FA0346002B01D000F00B
:10070400D7F800BF5037BD4680BD00BF0038024057
:100714000070004080B58CB000AF07F120030022C8
:100724001A605A609A60DA603B462022002118461B
:1007340004F022F82F4B304A1A602E4B4FF48032CB
:100744005A602C4B00229A602A4B00221A61294BD2
:1007540001221A76274B002283F82020254B002201
:10076400DA62244B254A9A62224B0022DA60214B3A
:100774000122DA611F4B002283F830201D4B012235
:100784005A611C4800F06EFA0346002B01D000F0B9
:100794008FF800233B6201237B620723BB6207F1CE
:1007A40020031946134800F03FFC0346002B01D0F8
:1007B40000F07EF800233B6001237B6001233B6152
:1007C4000023BB600023FB610D4BBB6100237B75E1
:1007D40000233B750023FB603B461946054800F0A7
:1007E40051FE0346002B01D000F062F800BF303701
:1007F400BD4680BD28000020002001400100000FFC
:1008040001000F0080B500AF124B134A1A60114B60
:10081400124A5A600F4B00229A600E4B2622DA606D
:100824000C4B4FF480421A610A4B00225A61094B67
:1008340000229A61074B0022DA61064B00221A62F9
:10084400044801F08FFA0346002B01D000F030F881
:1008540000BF80BD7000002000540040A08601004D
:1008640080B483B000AF00237B60104B1B6B0F4A36
:1008740043F0010313630D4B1B6B03F001037B6017
:100884007B6800233B60094B1B6B084A43F002035F
:100894001363064B1B6B03F002033B603B6800BF12
:1008A4000C37BD465DF8047B704700BF003802403A
:1008B40080B400AF72B600BFFEE7000080B582B01E
:1008C40000AF00237B60104B5B6C0F4A43F4804302
:1008D40053640D4B5B6C03F480437B607B680023A3
:1008E4003B60094B1B6C084A43F080531364064B6E
:1008F4001B6C03F080533B603B68072001F02CF82D
:1009040000BF0837BD4680BD0038024080B58AB0BC
:1009140000AF786007F1140300221A605A609A60ED
:10092400DA601A617B681B68174A934227D1002357
:100934003B61164B5B6C154A43F480735364134B51
:100944005B6C03F480733B613B690023FB600F4BDA
:100954001B6B0E4A43F0010313630C4B1B6B03F038
:100964000103FB60FB6801237B610323BB6100235C
:10097400FB6107F114031946054801F05FF800BF55
:100984002837BD4680BD00BF00200140003802402A
:100994000000024080B58AB000AF786007F114030C
:1009A40000221A605A609A60DA601A617B681B68D8
:1009B400214A93423CD100233B61204B1B6B1F4ACD
:1009C40043F0020313631D4B1B6B03F002033B61F3
:1009D4003B694FF440737B611223BB610023FB61CD
:1009E40003233B6204237B6207F114031946144872
:1009F40001F024F80023FB60104B1B6C0F4A43F4F6
:100A0400001313640D4B1B6C03F40013FB60FB68B1
:100A1400002200211F2000F0AAFF1F2000F0C3FFC6
:100A240000220021202000F0A2FF202000F0BBFFC4
:100A340000BF2837BD4680BD005400400038024046
:100A44000004024080B400AFFEE780B400AFFEE7CC
:100A540080B400AFFEE780B400AFFEE780B400AF1F
:100A6400FEE780B400AF00BFBD465DF8047B70476D
:100A740080B400AF00BFBD465DF8047B704780B40E
:100A840000AF00BFBD465DF8047B704780B500AF82
:100A940000F0A4F800BF80BD80B500AF024801F0AB
:100AA400C1FB00BF80BD00BF7000002080B500AF57
:100AB400024801F028FD00BF80BD00BF7000002087
:100AC40080B400AF064BD3F88830054A43F4700372
:100AD400C2F8883000BFBD465DF8047B704700BF94
:100AE40000ED00E0DFF834D00D480E490E4A002333
:100AF40002E0D458C4500433C4188C42F9D30B4ACE
:100B04000B4C002301E013600432A242FBD3FFF735
:100B1400D7FF03F00DFEFFF767FD704700000220CA
:100B2400000000200C000020CC4700080C0000202E
:100B3400D0000020FEE7000080B500AF0E4B1B681C
:100B44000D4A43F4007313600B4B1B680A4A43F4C9
:100B540080631360084B1B68074A43F48073136077
:100B6400032000F0F9FE002000F008F8FFF7A6FECD
:100B74000023184680BD00BF003C024080B582B00F
:100B840000AF7860124B1A68124B1B7819464FF469
:100B94007A73B3FBF1F3B2FBF3F3184600F011FFE1
:100BA4000346002B01D001230EE07B680F2B0AD8EB
:100BB400002279684FF0FF3000F0D9FE064A7B68C6
:100BC4001360002300E0012318460837BD4680BDAA
:100BD40000000020080000200400002080B400AFC2
:100BE400064B1B781A46064B1B681344044A1360D1
:100BF40000BFBD465DF8047B704700BF08000020BD
:100C0400CC00002080B400AF034B1B681846BD46DF
:100C14005DF8047B704700BFCC00002080B584B031
:100C240000AF7860FFF7EEFFB8607B68FB60FB689D
:100C3400B3F1FF3F05D00A4B1B781A46FB681344F7
:100C4400FB6000BFFFF7DEFF0246BB68D31AFA68F9
:100C54009A42F7D800BF00BF1037BD4680BD00BF21
:100C64000800002080B584B000AF78600023FB73D7
:100C74007B68002B01D1012333E07B681B6C002BC4
:100C840009D17868FFF742FE7B6800225A647B68CA
:100C9400002283F83C207B681B6C03F01003002BBC
:100CA40018D17B681B6C23F4885323F0020343F0B0
:100CB40002027B681A64786800F0E8FA7B68002214
:100CC4005A647B681B6C23F0030343F001027B68C6
:100CD4001A6401E00123FB737B68002283F83C2043
:100CE400FB7B18461037BD4680BD000080B485B03C
:100CF40000AF78600023BB607B6893F83C30012B25
:100D040001D10223B2E07B68012283F83C207B6896
:100D14001B689B6803F00103012B18D07B681B68D8
:100D24009A687B681B6842F001029A60524B1B6808
:100D3400524AA2FB03239A0C13465B001344BB6084
:100D440002E0BB68013BBB60BB68002BF9D17B6848
:100D54001B689B6803F00103012B7AD17B681B6C31
:100D640023F4E06323F0010343F480727B681A6484
:100D74007B681B685B6803F48063002B07D07B6887
:100D84001B6C23F4405343F480527B681A647B68E1
:100D94001B6C03F48053B3F5805F06D17B685B6CF6
:100DA40023F006027B685A6402E07B6800225A64DE
:100DB4007B68002283F83C20314BFB607B681B6816
:100DC4006FF022021A60FB685B6803F01F03002BBC
:100DD4002AD17B681B682B4A934215D07B681B6819
:100DE400294A934205D1264B5B6803F01F03002B6D
:100DF4000AD07B681B68254A934236D1204B5B6836
:100E040003F01003002B30D17B681B689B6803F050
:100E14004053002B29D17B681B689A687B681B6848
:100E240042F080429A6020E07B681B68154A934236
:100E34001BD17B681B689B6803F04053002B14D1C3
:100E44007B681B689A687B681B6842F080429A60E2
:100E54000BE07B681B6C43F010027B681A647B68B0
:100E64005B6C43F001027B685A6400231846143714
:100E7400BD465DF8047B70470000002083DE1B4301
:100E840000230140002001400021014000220140D4
:100E940080B483B000AF78607B6893F83C30012B5A
:100EA40001D1022321E07B68012283F83C207B6886
:100EB4001B689A687B681B6822F001029A607B6851
:100EC4001B689B6803F00103002B09D17B681B6C32
:100ED40023F4885323F0010343F001027B681A646E
:100EE4007B68002283F83C20002318460C37BD465B
:100EF4005DF8047B704780B584B000AF78603960DA
:100F04000023FB607B681B689B6803F48063B3F574
:100F1400806F13D17B681B689B6803F48073B3F5FF
:100F2400807F0BD17B681B6C43F020027B681A64C2
:100F34007B68002283F83C20012363E0FFF762FE14
:100F4400F86021E03B68B3F1FF3F1DD03B68002B04
:100F540007D0FFF757FE0246FB68D31A3A689A4255
:100F640012D27B681B681B6803F00203022B0BD0B0
:100F74007B681B6C43F004027B681A647B68002264
:100F840083F83C2003233DE07B681B681B6803F067
:100F94000203022BD6D17B681B686FF012021A6021
:100FA4007B681B6C43F400727B681A647B681B6863
:100FB4009B6803F04053002B23D17B681B7E002BDE
:100FC4001FD17B681B68DB6A03F47003002B06D017
:100FD4007B681B689B6803F48063002B11D17B68DA
:100FE4001B6C23F480727B681A647B681B6C03F4AB
:100FF4008053002B05D17B681B6C43F001027B6896
:101004001A64002318461037BD4680BD80B483B0EF
:1010140000AF78607B681B68DB6C18460C37BD46F4
:101024005DF8047B7047000080B485B000AF786041
:1010340039600023BB607B6893F83C30012B01D1FD
:10104400022313E17B68012283F83C203B681B6880
:10105400092B25D97B681B68D9683B681B689BB240
:101064001A4613465B0013441E3B072202FA03F39D
:10107400DA437B681B680A40DA607B681B68D968BE
:101084003B689A683B681B689BB2184603465B0042
:1010940003441E3B9A407B681B680A43DA6022E0E3
:1010A4007B681B6819693B681B689BB21A46134628
:1010B4005B001344072202FA03F3DA437B681B68DC
:1010C4000A401A617B681B6819693B689A683B6827
:1010D4001B689BB2184603465B0003449A407B6836
:1010E4001B680A431A613B685B68062B24D87B683B
:1010F4001B68596B3B685A6813469B001344053BB5
:101104001F2202FA03F3DA437B681B680A405A631E
:101114007B681B68596B3B681B689BB218463B682D
:101124005A6813469B001344053B00FA03F27B689C
:101134001B680A435A634CE03B685B680C2B24D859
:101144007B681B68196B3B685A6813469B00134401
:10115400233B1F2202FA03F3DA437B681B680A402D
:101164001A637B681B68196B3B681B689BB2184643
:101174003B685A6813469B001344233B00FA03F26E
:101184007B681B680A431A6323E07B681B68D96A7F
:101194003B685A6813469B001344413B1F2202FAE2
:1011A40003F3DA437B681B680A40DA627B681B68D6
:1011B400D96A3B681B689BB218463B685A68134659
:1011C4009B001344413B00FA03F27B681B680A430B
:1011D400DA62294BFB607B681B68284A93420FD173
:1011E4003B681B68122B0BD1FB685B6823F400027D
:1011F400FB685A60FB685B6843F48002FB685A60D2
:101204007B681B681D4A93422BD13B681B681C4AB0
:10121400934203D03B681B68112B22D1FB685B68A7
:1012240023F48002FB685A60FB685B6843F40002A5
:10123400FB685A603B681B68114A934211D1114BF9
:101244001B68114AA2FB03239A0C13469B00134408
:101254005B00BB6002E0BB68013BBB60BB68002B6A
:10126400F9D17B68002283F83C2000231846143708
:10127400BD465DF8047B7047002301400020014017
:10128400120000100000002083DE1B4380B485B0F0
:1012940000AF7860794BFB60FB685B6823F44032F5
:1012A400FB685A60FB685A687B685B681A43FB6892
:1012B4005A607B681B685A687B681B6822F48072DA
:1012C4005A607B681B6859687B681B691A027B68D3
:1012D4001B680A435A607B681B685A687B681B68F2
:1012E40022F040725A607B681B6859687B689A6870
:1012F4007B681B680A435A607B681B689A687B6832
:101304001B6822F400629A607B681B6899687B689A
:10131400DA687B681B680A439A607B689B6A584A50
:10132400934222D07B681B689A687B681B6822F012
:1013340070629A607B681B6899687B689A6A7B68AC
:101344001B680A439A607B681B689A687B681B6801
:1013540022F040529A607B681B6899687B68DA6A5D
:101364007B681B680A439A600FE07B681B689A6875
:101374007B681B6822F070629A607B681B689A68BD
:101384007B681B6822F040529A607B681B689A68ED
:101394007B681B6822F002029A607B681B6899686C
:1013A4007B681B7E5A007B681B680A439A607B68D3
:1013B40093F82030002B1BD07B681B685A687B682D
:1013C4001B6842F400625A607B681B685A687B6839
:1013D4001B6822F460425A607B681B6859687B680A
:1013E4005B6A013B5A037B681B680A435A6007E047
:1013F4007B681B685A687B681B6822F400625A6029
:101404007B681B68DA6A7B681B6822F47002DA6204
:101414007B681B68D96A7B68DB69013B1A057B68BA
:101424001B680A43DA627B681B689A687B681B68DE
:1014340022F400729A607B681B6899687B6893F851
:1014440030305A027B681B680A439A607B681B68C9
:101454009A687B681B6822F480629A607B681B68C8
:1014640099687B685B699A027B681B680A439A6087
:1014740000BF1437BD465DF8047B7047002301406C
:101484000100000F80B485B000AF786039607B68DC
:1014940093F83C30012B01D102237EE17B680122C9
:1014A40083F83C203B681B68092B25D97B681B68A3
:1014B400D9683B681B689BB21A4613465B00134409
:1014C4001E3B072202FA03F3DA437B681B680A40D7
:1014D400DA607B681B68D9683B689A683B681B685C
:1014E4009BB2184603465B0003441E3B9A407B684C
:1014F4001B680A43DA6022E07B681B6819693B6851
:101504001B689BB21A4613465B001344072202FA77
:1015140003F3DA437B681B680A401A617B681B6823
:1015240019693B689A683B681B689BB21846034676
:101534005B0003449A407B681B680A431A617B681A
:101544001B689A6B7B681B6822F440129A637B6861
:101554001B68996B3B681B69013B1A057B681B6818
:101564000A439A637B681B68996B3B685B68DAB2D1
:101574003B681B69DBB2D31ADBB20333DBB21A4616
:1015840013469B0013441F2202FA03F3DA437B68D9
:101594001B680A409A637B681B68996B3B681B68ED
:1015A4009BB218463B685B68DAB23B681B69DBB2E6
:1015B400D31ADBB20333DBB21A4613469B0013443F
:1015C40000FA03F27B681B680A439A633B689B69D1
:1015D400754A934222D07B681B689A687B681B68B3
:1015E40022F470229A607B681B6899683B689A6948
:1015F4007B681B680A439A607B681B689A687B68EF
:101604001B6822F440129A607B681B6899683B68E7
:10161400DA697B681B680A439A600FE07B681B6881
:101624009A687B681B6822F470229A607B681B6846
:101634009A687B681B6822F440129A603B685B7D61
:10164400002B08D07B681B685A687B681B6842F4CF
:1016540080625A6007E07B681B685A687B681B6875
:1016640022F480625A603B681B7D002B08D07B68A3
:101674001B685A687B681B6842F480525A6007E012
:101684007B681B685A687B681B6822F480525A6026
:101694003B685B68032B2ED0032B40D8012B02D070
:1016A400022B14D03BE07B681B685B697A68126884
:1016B40023F47F6323F00F0353617B681B6859692C
:1016C4003B68DA687B681B680A435A613BE07B68C5
:1016D4001B689B697A68126823F47F6323F00F0305
:1016E40093617B681B6899693B68DA687B681B684F
:1016F4000A439A6127E07B681B68DB697A68126891
:1017040023F47F6323F00F03D3617B681B68D969DB
:101714003B68DA687B681B680A43DA6113E07B681C
:101724001B681B6A7A68126823F47F6323F00F0333
:1017340013627B681B68196A3B68DA687B681B68FC
:101744000A431A6200BF194BFB607B681B68184A86
:10175400934209D13B681B68122B05D1FB685B6877
:1017640043F48002FB685A607B681B68104A93420A
:101774000ED13B681B680F4A934203D03B681B6839
:10178400112B05D1FB685B6843F40002FB685A60C7
:101794007B68002283F83C20002318461437BD469A
:1017A4005DF8047B704700BF01000F000023014077
:1017B400002001401200001080B485B000AF7860B2
:1017C4007B6803F00703FB600C4BDB68BB60BA6803
:1017D4004FF6FF031340BB60FB681A02BB68134358
:1017E40043F0BF6343F40033BB60044ABB68D36077
:1017F40000BF1437BD465DF8047B704700ED00E080
:1018040080B400AF044BDB681B0A03F007031846DF
:10181400BD465DF8047B704700ED00E080B483B002
:1018240000AF0346FB7197F90730002B0BDBFB7904
:1018340003F01F02074997F907305B09012000FAFA
:1018440002F241F8232000BF0C37BD465DF8047B4B
:10185400704700BF00E100E080B483B000AF0346EE
:101864003960FB7197F90730002B0ADB3B68DAB269
:101874000C4997F907301201D2B20B4483F80023C4
:101884000AE03B68DAB20849FB7903F00F03043B32
:101894001201D2B20B441A7600BF0C37BD465DF874
:1018A400047B704700E100E000ED00E080B489B003
:1018B40000AFF860B9607A60FB6803F00703FB616E
:1018C400FB69C3F10703042B28BF0423BB61FB6935
:1018D4000433062B02D9FB69033B00E000237B6140
:1018E4004FF0FF32BB6902FA03F3DA43BB681A40D4
:1018F4007B699A404FF0FF317B6901FA03F3D943C6
:101904007B680B40134318462437BD465DF8047BBF
:101914007047000080B582B000AF78607B68013BFF
:10192400B3F1807F01D301230FE00A4A7B68013BB6
:1019340053600F214FF0FF30FFF78EFF054B00225D
:101944009A60044B07221A60002318460837BD46E4
:1019540080BD00BF10E000E080B582B000AF7860C9
:101964007868FFF729FF00BF0837BD4680BD80B502
:1019740086B000AF0346B9607A60FB7300237B61D5
:10198400FFF73EFF78617A68B9687869FFF78EFFE0
:10199400024697F90F3011461846FFF75DFF00BF66
:1019A4001837BD4680BD80B582B000AF0346FB71D9
:1019B40097F907301846FFF731FF00BF0837BD46D7
:1019C40080BD80B582B000AF78607868FFF7A2FF71
:1019D400034618460837BD4680BD80B483B000AFC7
:1019E40078607B6893F83530DBB2022B04D07B68D7
:1019F40080225A6501230CE07B68052283F8352098
:101A04007B681B681A687B681B6822F001021A60F5
:101A1400002318460C37BD465DF8047B704780B43C
:101A240083B000AF78607B6893F83530DBB218463A
:101A34000C37BD465DF8047B7047000080B489B064
:101A440000AF7860396000237B6100233B61002391
:101A5400BB610023FB6165E10122FB6902FA03F328
:101A64007B613B681B687A6913403B613A697B6917
:101A74009A4240F054813B685B6803F00303012BF6
:101A840005D03B685B6803F00303022B30D17B680D
:101A94009B68BB61FB695B00032202FA03F3DB432F
:101AA400BA691340BB613B68DA68FB695B0002FA00
:101AB40003F3BA691343BB617B68BA699A607B68B4
:101AC4005B68BB610122FB6902FA03F3DB43BA6979
:101AD4001340BB613B685B681B0903F00102FB69AF
:101AE40002FA03F3BA691343BB617B68BA695A60AB
:101AF4003B685B6803F00303032B17D07B68DB6848
:101B0400BB61FB695B00032202FA03F3DB43BA699E
:101B14001340BB613B689A68FB695B0002FA03F3FC
:101B2400BA691343BB617B68BA69DA603B685B6876
:101B340003F00303022B23D1FB69DA087B68083224
:101B440053F82230BB61FB6903F007039B000F22AB
:101B540002FA03F3DB43BA691340BB613B681A69B9
:101B6400FB6903F007039B0002FA03F3BA6913430A
:101B7400BB61FB69DA087B680832B96943F8221053
:101B84007B681B68BB61FB695B00032202FA03F3F9
:101B9400DB43BA691340BB613B685B6803F0030233
:101BA400FB695B0002FA03F3BA691343BB617B6808
:101BB400BA691A603B685B6803F44033002B00F099
:101BC400AE800023FB605D4B5B6C5C4A43F4804356
:101BD40053645A4B5B6C03F48043FB60FB68584AC4
:101BE400FB699B08023352F82330BB61FB6903F0A5
:101BF40003039B000F2202FA03F3DB43BA69134089
:101C0400BB617B684F4A934225D07B684E4A93421E
:101C14001FD07B684D4A934219D07B684C4A93424B
:101C240013D07B684B4A93420DD07B684A4A934257
:101C340007D07B68494A934201D106230CE007236D
:101C44000AE0052308E0042306E0032304E002235A
:101C540002E0012300E00023FA6902F0030292008B
:101C64009340BA691343BB613549FB699B0802334E
:101C7400BA6941F823203A4B9B68BB613B69DB435B
:101C8400BA691340BB613B685B6803F48013002BA3
:101C940003D0BA693B691343BB61314ABB699360A2
:101CA4002F4BDB68BB613B69DB43BA691340BB6103
:101CB4003B685B6803F40013002B03D0BA693B69EB
:101CC4001343BB61264ABB69D360254B5B68BB6188
:101CD4003B69DB43BA691340BB613B685B6803F44F
:101CE4000033002B03D0BA693B691343BB611C4A20
:101CF400BB6953601A4B1B68BB613B69DB43BA6920
:101D04001340BB613B685B6803F48033002B03D052
:101D1400BA693B691343BB61114ABB691360FB6930
:101D24000133FB61FB690F2B7FF696AE00BF00BF4A
:101D34002437BD465DF8047B704700BF003802407D
:101D44000038014000000240000402400008024044
:101D5400000C02400010024000140240001802402F
:101D6400003C014080B584B000AF78607B68002BF4
:101D740001D101232BE17B6893F83D30DBB2002BCA
:101D840006D17B68002283F83C207868FEF702FEC7
:101D94007B68242283F83D207B681B681A687B6873
:101DA4001B6822F001021A607B681B681A687B6852
:101DB4001B6842F400421A607B681B681A687B68DF
:101DC4001B6822F400421A6001F0D0FFF8607B68BF
:101DD4005B68814A934207D8FB68804A934294BF68
:101DE40001230023DBB206E0FB687D4A934294BFE3
:101DF40001230023DBB2002B01D00123E7E0FB68C1
:101E0400784AA2FB03239B0CBB607B681B685B685E
:101E140023F03F017B681B68BA680A435A607B68F9
:101E24001B681B6A23F03F017B685B686A4A934224
:101E340002D8BB68013309E0BB684FF4967202FB19
:101E440003F3694AA2FB03239B0901337A681268EE
:101E54000B4313627B681B68DB6923F44F4222F057
:101E6400FF027B685B685C498B4219D8FB68591E8A
:101E74007B685B685B00B1FBF3F3591C40F6FC73B1
:101E84000B40002B0AD0FB68591E7B685B685B0023
:101E9400B1FBF3F30133C3F30B0351E004234FE02D
:101EA4007B689B68002B11D1FB68581E7B685968BE
:101EB4000B465B000B44B0FBF3F30133C3F30B039A
:101EC400002B0CBF01230023DBB212E0FB68581E79
:101ED4007B6859680B469B000B4499000B44B0FB8C
:101EE400F3F30133C3F30B03002B0CBF01230023D3
:101EF400DBB2002B01D0012322E07B689B68002B1E
:101F04000ED1FB68581E7B6859680B465B000B4476
:101F1400B0FBF3F30133C3F30B0343F400430FE0CB
:101F2400FB68581E7B6859680B469B000B4499005C
:101F34000B44B0FBF3F30133C3F30B0343F440430B
:101F4400796809681343CB617B681B681B6823F0BD
:101F5400C0017B68DA697B681B6A1A437B681B686B
:101F64000A431A607B681B689B6823F4034323F0CD
:101F7400FF037A6811697A68D26811437A68126833
:101F84000B4393607B681B68DB6823F0FF017B686D
:101F94005A697B689B691A437B681B680A43DA6049
:101FA4007B681B681A687B681B6842F001021A6030
:101FB4007B6800221A647B68202283F83D207B68BA
:101FC40000221A637B68002283F83E20002318460F
:101FD4001037BD4680BD00BFA08601007F841E006F
:101FE400FF083D0083DE1B43D34D621080B487B0ED
:101FF40000AFF860B9603B601346FB80FB6893F860
:102004003D30DBB203F02803282B5BD1BB68002BE7
:1020140002D0FB88002B01D1012354E0FB6893F824
:102024003C30012B01D102234DE0FB68012283F8EF
:102034003C20FB681B681B6803F00103012B07D0DD
:10204400FB681B681A68FB681B6842F001021A608F
:10205400FB681B681A68FB681B6822F400621A603C
:10206400FB68292283F83D20FB68202283F83E2068
:10207400FB6800221A64FB68BA685A62FB68FA8833
:102084005A85FB685B8D9AB2FB681A85FB683A68CF
:10209400DA6200237B61FB681B685B697B61FB6818
:1020A4001B689B697B617B69FB68002283F83C2089
:1020B400FB681B685A68FB681B6842F4E0625A605C
:1020C400002300E0022318461C37BD465DF8047B5C
:1020D400704780B487B000AFF860B9603B601346C6
:1020E400FB80FB6893F83D30DBB203F02803282B18
:1020F4005BD1BB68002B02D0FB88002B01D10123EC
:1021040054E0FB6893F83C30012B01D102234DE0ED
:10211400FB68012283F83C20FB681B681B6803F002
:102124000103012B07D0FB681B681A68FB681B6856
:1021340042F001021A60FB681B681A68FB681B689E
:1021440022F400621A60FB682A2283F83D20FB68AF
:10215400202283F83E20FB6800221A64FB68BA68D8
:102164005A62FB68FA885A85FB685B8D9AB2FB68F1
:102174001A85FB683A68DA6200237B61FB681B6896
:102184005B697B61FB681B689B697B617B69FB689E
:10219400002283F83C20FB681B685A68FB681B68B4
:1021A40042F4E0625A60002300E0022318461C3720
:1021B400BD465DF8047B704780B483B000AF78609F
:1021C4007B6893F83D30DBB2202B24D17B68282236
:1021D40083F83D207B681B681B6803F00103012B17
:1021E40007D07B681B681A687B681B6842F0010291
:1021F4001A607B681B681A687B681B6842F48062FB
:102204001A607B681B685A687B681B6842F44072DA
:102214005A60002300E0022318460C37BD465DF8DF
:10222400047B704780B588B000AF78600023BB6141
:102234007B681B685B687B617B68DB6A3B617B68EE
:1022440093F83E30FB737B6893F83D30BB73FB7BA4
:10225400102B03D0FB7B402B40F0C1807B681B68B4
:102264009B69BB617B681B685B69FB61FB6903F06D
:102274000103002B0DD13B69B3F52A0F03D03B6951
:10228400B3F12A4F01D1012300E00023012B00F018
:102294003281FB6903F00103002B0CD07B695B0ADC
:1022A40003F00103002B06D0786801F051FC786834
:1022B40000F059FD92E0FB69DB0803F00103002BF9
:1022C40009D07B695B0A03F00103002B03D0786813
:1022D40000F0CFFD82E0FB695B0803F00103002BF3
:1022E40009D07B695B0A03F00103002B03D07868F3
:1022F40000F0E9FD72E0BB699B0803F00103002BC9
:102304003BD07B681B685B6803F40063B3F5006F24
:1023140000F0F380FB69DB0903F00103002B0FD00D
:102324007B699B0A03F00103002B09D0FB699B081E
:1023340003F00103002B03D1786800F0C9F94DE0E4
:10234400FB699B0803F00103002B00F0D6807B6936
:102354005B0A03F00103002B00F0CF80BB7B212B31
:1023640003D1786800F050FAC7E0FB7B402B40F0C3
:10237400C480786800F0BEFABFE07B681B685B68C5
:1023840003F40063B3F5006F00F0B780FB699B09A9
:1023940003F00103002B0FD07B699B0A03F00103B8
:1023A400002B09D0FB699B0803F00103002B03D128
:1023B400786800F033FB11E0FB699B0803F001032C
:1023C400002B00F09A807B695B0A03F00103002B69
:1023D40000F09380786800F0DCFB8EE08DE07B6891
:1023E4001B6C002B04D07B681B685B69FB6107E0F6
:1023F4007B681B689B69BB617B681B685B69FB61CD
:10240400FB695B0803F00103002B12D07B695B0AB4
:1024140003F00103002B0CD07B681B6C002B03D052
:102424007B681B689B69BB61B969786800F09AFF97
:1024340066E0FB691B0903F00103002B09D07B69EB
:102444005B0A03F00103002B03D0786800F0D4FF8B
:1024540056E0BB7B212B02D0BB7B292B25D1FB690A
:10246400DB0903F00103002B0FD07B699B0A03F007
:102474000103002B09D0FB699B0803F00103002B27
:1024840003D1786800F0B0FE39E0FB699B0803F0E3
:102494000103002B33D07B695B0A03F00103002B9B
:1024A4002DD0786800F0DDFE29E0FB699B0903F07C
:1024B4000103002B0FD07B699B0A03F00103002B5F
:1024C40009D0FB699B0803F00103002B03D1786852
:1024D40000F0E8FE14E0FB699B0803F00103002B05
:1024E4000ED07B695B0A03F00103002B08D07868E7
:1024F40000F016FF04E000BF02E000BF00E000BFF0
:102504002037BD4680BD80B58AB000AF78607B6857
:102514001B685B693B627B681B685B68FB6100232B
:102524007B627B6893F83E30FB763B6A1B0A03F0C0
:102534000103002B0ED0FB691B0A03F00103002BDF
:1025440008D07B6A43F001037B627B681B686FF4ED
:1025540080725A613B6A5B0A03F00103002B0ED0C0
:10256400FB691B0A03F00103002B08D07B6A43F0CC
:1025740002037B627B681B686FF400725A613B6ADA
:102584009B0A03F00103002B3FD0FB691B0A03F0F5
:102594000103002B39D0FB7EBB767B685B8D9BB23D
:1025A4007B617B6893F83D30FB747B681B6BFB603D
:1025B400BB7E202B12D17B69002B0FD1FB7C212BFE
:1025C40008D0FB7C292B05D0FB7C282B06D1FB688B
:1025D400212B03D1786801F03FF816E07B681B6873
:1025E4006FF480625A617B6A43F004037B62FB7E72
:1025F400102B02D0FB7E402B07D17B681B681A6826
:102604007B681B6842F400721A603B6ADB0A03F0C1
:102614000103002B0ED0FB691B0A03F00103002BFE
:1026240008D07B6A43F008037B627B681B686FF405
:1026340000625A617B6A002B08D07B681A6C7B6A43
:102644001A437B681A64786801F076F800BF28376B
:10265400BD4680BD80B483B000AF786000BF0C3746
:10266400BD465DF8047B704780B483B000AF7860EA
:1026740000BF0C37BD465DF8047B704780B483B05F
:1026840000AF786000BF0C37BD465DF8047B70472F
:1026940080B483B000AF786000BF0C37BD465DF8EE
:1026A400047B704780B483B000AF786000BF0C3700
:1026B400BD465DF8047B704780B483B000AF78609A
:1026C4007B681B6C18460C37BD465DF8047B70476D
:1026D40080B584B000AF78607B6893F83D30FB73BD
:1026E4007B6893F83E30BB737B68DB6ABB607B68B6
:1026F4001B8D002B50D1FB7B212B4DD1BB68082BAC
:102704001DD0BB68202B1AD0BB6813F5803F16D0B0
:102714007B681B685A687B681B6822F4E0625A6015
:102724007B6811221A637B68002283F83E207B6851
:10273400202283F83D207868FFF78CFF60E07B68F7
:102744001B685A687B681B6822F4E0625A607B68E5
:102754001B681A687B681B6842F400721A607B6805
:1027640000221A637B68202283F83D207B6893F85B
:102774003E30DBB2402B07D17B68002283F83E2039
:102784007868FFF77BFF3BE07B68002283F83E20FC
:102794007868FFF75FFF33E0FB7B212B05D0BB7B21
:1027A400402B2DD1FB7B222B2AD17B685B8D9BB2E6
:1027B400002B08D17B681B685A687B681B6822F46D
:1027C40080625A601CE07B6893F83E30DBB2402B99
:1027D40003D1786800F08EF812E07B685B6A1A789F
:1027E4007B681B681A617B685B6A5A1C7B685A6247
:1027F4007B685B8D9BB2013B9AB27B685A85FFE78D
:1028040000BF1037BD4680BD80B584B000AF78608E
:102814007B68DB6AFB607B6893F83D30DBB2212B7D
:1028240064D17B685B8D9BB2002B12D07B685B6AA2
:102834001A787B681B681A617B685B6A5A1C7B6820
:102844005A627B685B8D9BB2013B9AB27B685A8566
:102854004CE0FB68082B1DD0FB68202B1AD0FB68CA
:1028640013F5803F16D07B681B685A687B681B6829
:1028740022F4E0625A607B6811221A637B680022AA
:1028840083F83E207B68202283F83D207868FFF798
:10289400E1FE2BE07B681B685A687B681B6822F4A6
:1028A400E0625A607B681B681A687B681B6842F4A4
:1028B40000721A607B6800221A637B68202283F806
:1028C4003D207B6893F83E30DBB2402B07D17B6818
:1028D400002283F83E207868FFF7D0FE06E07B688C
:1028E400002283F83E207868FFF7B4FE00BF10375B
:1028F400BD4680BD80B584B000AF78607B6893F836
:102904003D30FB737B681B6D002B1DD17B68DB6C3A
:10291400012B0BD17B689B6CDAB27B681B681A6154
:102924007B681B6D9A1C7B681A6573E07B689B6CE3
:102934009BB21B12DAB27B681B681A617B681B6D41
:102944005A1C7B681A6565E07B681B6D012B0BD1F3
:102954007B689B6CDAB27B681B681A617B681B6DB1
:102964005A1C7B681A6555E07B681B6D022B51D19C
:10297400FB7B222B0DD17B681B681A687B681B6864
:1029840042F480721A607B681B6D5A1C7B681A655E
:1029940040E07B685B8D9BB2002B15D0FB7B212B29
:1029A40012D17B685B6A1A787B681B681A617B6842
:1029B4005B6A5A1C7B685A627B685B8D9BB2013BE5
:1029C4009AB27B685A8525E07B685B8D9BB2002BAD
:1029D40020D1FB7B212B1DD17B681B685A687B6847
:1029E4001B6822F4E0625A607B681B681A687B6883
:1029F4001B6842F400721A607B6800221A637B68C9
:102A0400202283F83D207B68002283F83E207868EA
:102A1400FFF734FE00BF1037BD4680BD80B584B0DB
:102A240000AF78607B6893F83D30DBB2222B40F036
:102A3400AC807B685B8D9BB2FB60FB68032B21D968
:102A44007B681B681A697B685B6AD2B21A707B6800
:102A54005B6A5A1C7B685A627B685B8D9BB2013B44
:102A64009AB27B685A857B685B8D9BB2032B40F0DE
:102A74008C807B681B685A687B681B6822F48062C0
:102A84005A6082E07B68DB6A022B75D0FB68012BFD
:102A940002D0FB68002B6FD1786801F027F8034659
:102AA400002B42D17B681B681A687B681B6822F480
:102AB40080621A607B681B685A687B681B6822F412
:102AC400E0625A607B681B681A697B685B6AD2B2F1
:102AD4001A707B685B6A5A1C7B685A627B685B8DE0
:102AE4009BB2013B9AB27B685A857B68202283F8AB
:102AF4003D207B6893F83E30DBB2402B0AD17B68E3
:102B0400002283F83E207B6800221A637868FFF76E
:102B1400BFFD3AE07B68002283F83E207B681222E6
:102B24001A637868FFF7A0FD2FE07B681B685A687A
:102B34007B681B6822F4E0625A607B681B681A6930
:102B44007B685B6AD2B21A707B685B6A5A1C7B68CA
:102B54005A627B685B8D9BB2013B9AB27B685A8553
:102B64007B68202283F83D207B68002283F83E2086
:102B74007868FDF722FD08E07B681B685A687B686B
:102B84001B6822F480625A60FFE700BF1037BD461D
:102B940080BD80B584B000AF78607B68DB6AFB6081
:102BA4007B685B8D9BB2042B1BD17B681B685A68C6
:102BB4007B681B6822F480625A607B681B681A6910
:102BC4007B685B6AD2B21A707B685B6A5A1C7B684A
:102BD4005A627B685B8D9BB2013B9AB27B685A85D3
:102BE400BDE07B685B8D9BB2032B29D17B681B689E
:102BF4005A687B681B6822F480625A60FB68042B65
:102C04000AD0FB68022B07D07B681B681A687B68B4
:102C14001B6822F480621A607B681B681A697B68EF
:102C24005B6AD2B21A707B685B6A5A1C7B685A6210
:102C34007B685B8D9BB2013B9AB27B685A858EE0C0
:102C44007B685B8D9BB2022B76D1FB68012B02D093
:102C5400FB68102B08D17B681B681A687B681B68AB
:102C640022F480621A6019E0FB68042B02D0FB682E
:102C7400022B08D17B681B681A687B681B6842F4C6
:102C840080621A600AE0FB68102B07D07B681B681F
:102C94001A687B681B6842F400721A607B681B68C0
:102CA4001A697B685B6AD2B21A707B685B6A5A1CC9
:102CB4007B685A627B685B8D9BB2013B9AB27B68EE
:102CC4005A857B681B681A697B685B6AD2B21A7082
:102CD4007B685B6A5A1C7B685A627B685B8D9BB21B
:102CE400013B9AB27B685A857B681B685A687B688B
:102CF4001B6822F440725A607B68202283F83D20CE
:102D04007B6893F83E30DBB2402B0AD17B6800220B
:102D140083F83E207B6800221A637868FFF7B8FCCA
:102D24001DE07B68002283F83E207B6812221A6330
:102D34007868FFF799FC12E07B681B681A697B6866
:102D44005B6AD2B21A707B685B6A5A1C7B685A62EF
:102D54007B685B8D9BB2013B9AB27B685A8500BF4E
:102D64001037BD4680BD80B483B000AF78607B6807
:102D740093F83E30DBB2402B17D17B681B6D002BE0
:102D840009D17B685B6CDBB21A467B681B6802F076
:102D9400FE021A6167E07B685B6CDBB243F00103FF
:102DA400DAB27B681B681A615DE07B681B69B3F566
:102DB400804F33D17B6893F83D30DBB2212B09D1AE
:102DC4007B685B6CDBB21A467B681B6802F0FE0210
:102DD4001A6108E07B685B6CDBB243F00103DAB292
:102DE4007B681B681A617B685B6B002B04D07B6873
:102DF4005B6BDB6B002B08D17B689B6B002B32D0A9
:102E04007B689B6BDB6B002B2DD07B681B685A683F
:102E14007B681B6842F400625A6024E07B681B6D87
:102E2400002B0ED17B685B6C9BB2DB11DBB203F031
:102E34000603DBB263F00F03DAB27B681B681A6126
:102E440011E07B681B6D012B0DD17B685B6C9BB221
:102E5400DB11DBB203F00603DBB263F00E03DAB27C
:102E64007B681B681A6100BF0C37BD465DF8047BA4
:102E7400704780B483B000AF78607B685B6CDAB273
:102E84007B681B681A617B685B6B002B04D07B68D2
:102E94005B6BDB6B002B08D17B689B6B002B0CD02E
:102EA4007B689B6BDB6B002B07D07B681B685A68C5
:102EB4007B681B6842F400625A6000BF0C37BD4651
:102EC4005DF8047B704780B491B000AF78607B6894
:102ED40093F83E3087F83F307B68DB6ABB637B68DE
:102EE4001B6B7B637B6893F83D30DBB2222B40F095
:102EF40069817B681B6D002B0FD197F83F30402B05
:102F04000BD100233B637B681B685B693B637B6875
:102F14001B689B693B633B6B60E17B681B6D002B0B
:102F24001DD17B681B69B3F5404F18D10023FB62A8
:102F34007B681B685B69FB627B681B689B69FB623F
:102F4400FB6A7B681B681A687B681B6842F48072A2
:102F54001A607B681B6D5A1C7B681A653EE17B68AE
:102F64005B8D9BB2002B13D10023BB627B681B6873
:102F74005B69BB627B681B689B69BB62BB6A7B68DD
:102F84001B681A687B681B6842F400721A6015E1BA
:102F94007B685B8D9BB2012B40F08A80BB6B13F581
:102FA400803F37D17B681B681A687B681B6822F4F2
:102FB40080621A607B681B685B6803F40063B3F586
:102FC400006F13D17B681B681A687B681B6822F446
:102FD40080621A6000237B627B681B685B697B628A
:102FE4007B681B689B697B627B6AE7E000233B622A
:102FF4007B681B685B693B627B681B689B693B62FF
:103004003B6A7B681B681A687B681B6842F4007221
:103014001A60D3E0BB6B082B2ED0BB6B202B2BD0BC
:103024007B6B122B02D1BB6B012B25D1BB6B042B09
:103034000ED0BB6B022B0BD0BB6B102B08D07B6864
:103044001B681A687B681B6822F480621A6007E0B8
:103054007B681B681A687B681B6842F480621A608C
:103064000023FB617B681B685B69FB617B681B68F1
:103074009B69FB61FB69A1E07B681B681A687B683C
:103084001B6822F480621A600023BB617B681B68A2
:103094005B69BB617B681B689B69BB61BB697B68BF
:1030A4001B681A687B681B6842F400721A6085E02A
:1030B4007B685B8D9BB2022B4DD1BB6B042B16D06E
:1030C400BB6B022B13D0BB6B102B10D07B681B681F
:1030D4001A687B681B6822F480621A607B681B682C
:1030E4001A687B681B6842F400621A6007E07B6818
:1030F4001B681A687B681B6842F480621A607B68EC
:103104001B685B6803F40063B3F5006F17D1BB6BF6
:1031140013F5803F0BD0BB6B012B08D0BB6B082B86
:1031240005D0BB6B102B02D0BB6B202B07D17B6867
:103134001B685A687B681B6842F480525A600023FB
:103144007B617B681B685B697B617B681B689B692F
:103154007B617B6932E07B681B681A687B681B684B
:1031640042F480621A607B681B685B6803F4006346
:10317400B3F5006F17D1BB6B13F5803F0BD0BB6B5E
:10318400012B08D0BB6B082B05D0BB6B102B02D0D6
:10319400BB6B202B07D17B681B685A687B681B6854
:1031A40042F480525A6000233B617B681B685B6970
:1031B4003B617B681B689B693B613B697B680022C0
:1031C4001A650BE00023FB607B681B685B69FB608E
:1031D4007B681B689B69FB60FB68FFE700BF4437A3
:1031E400BD465DF8047B704780B584B000AF78605D
:1031F4007B6893F83D30FB737B685B8D9BB2002B3F
:103204002BD07B685B6A1A787B681B681A617B68C1
:103214005B6A5A1C7B685A627B685B8D9BB2013B7C
:103224009AB27B685A857B685B8D9BB2002B14D164
:10323400FB7B292B11D17B681B685A687B681B6850
:1032440022F480625A607B6821221A637B682822F8
:1032540083F83D207868FDF79AF900BF1037BD4622
:1032640080BD80B483B000AF78607B685B8D9BB217
:10327400002B11D07B685B6A1A787B681B681A6123
:103284007B685B6A5A1C7B685A627B685B8D9BB265
:10329400013B9AB27B685A8500BF0C37BD465DF886
:1032A400047B704780B584B000AF78607B6893F886
:1032B4003D30FB737B685B8D9BB2002B2CD07B680D
:1032C4001B681A697B685B6AD2B21A707B685B6A96
:1032D4005A1C7B685A627B685B8D9BB2013B9AB235
:1032E4007B685A857B685B8D9BB2002B14D1FB7B7A
:1032F4002A2B11D17B681B685A687B681B6822F4EF
:1033040080625A607B6822221A637B68282283F8D1
:103314003D207868FDF730F900BF1037BD4680BD09
:1033240080B483B000AF78607B685B8D9BB2002B68
:1033340012D07B681B681A697B685B6AD2B21A7008
:103344007B685B6A5A1C7B685A627B685B8D9BB2A4
:10335400013B9AB27B685A8500BF0C37BD465DF8C5
:10336400047B704780B584B000AF78603960002377
:10337400FB737B6893F83D30DBB203F02803282B02
:1033840027D17B681B685A687B681B6822F48062BB
:103394005A603B689B0803F00103002B01D1012311
:1033A400FB733B68DB0903F00103002B03D17B684B
:1033B400DB68BB8102E07B689B69BB817B68002280
:1033C40083F83C20BA89FB7B19467868FDF7B4F88A
:1033D4000EE00023BB607B681B685B69BB607B6895
:1033E4001B689B69BB60BB687B68002283F83C2038
:1033F40000BF1037BD4680BD80B584B000AF786093
:103404007B6893F83D30FB737B681B685A687B6864
:103414001B6822F4E0625A600023BB607B681B686F
:103424005B69BB607B681B681A687B681B6842F039
:1034340001021A60BB687B681B681A687B681B689A
:1034440022F480621A607B681B685B6803F4006383
:10345400B3F5006F72D1FB7B222B02D0FB7B2A2BAE
:1034640035D17B689B6B1B685B689AB27B685A8515
:103474007B685B8D9BB2002B05D07B681B6C43F093
:1034840004027B681A647B681B685A687B681B6843
:1034940022F400625A607B689B6B1846FEF7BFFA01
:1034A4000346012B49D07B689B6B694A1A657B688C
:1034B4009B6B1846FEF791FA0346002B3DD07B68C0
:1034C4009B6B1B6D7A68926B1046984735E07B685E
:1034D4005B6B1B685B689AB27B685A857B685B8D03
:1034E4009BB2002B05D07B681B6C43F004027B6805
:1034F4001A647B681B685A687B681B6822F4006244
:103504005A607B685B6B1846FEF789FA0346012B09
:1035140014D07B685B6B4E4A1A657B685B6B1846FC
:10352400FEF75BFA0346002B08D07B685B6B1B6DD0
:103534007A68526B1046984700E000BF7B685B8D49
:103544009BB2002B3ED07B681B685B6903F00403CD
:10355400042B12D17B681B681A697B685B6AD2B240
:103564001A707B685B6A5A1C7B685A627B685B8D45
:103574009BB2013B9AB27B685A857B681B685B6986
:1035840003F04003402B12D17B681B681A697B68E7
:103594005B6AD2B21A707B685B6A5A1C7B685A6297
:1035A4007B685B8D9BB2013B9AB27B685A857B68D2
:1035B4005B8D9BB2002B05D07B681B6C43F004022F
:1035C4007B681A647B681B6C002B03D0786800F05E
:1035D400B3F839E0FB7B2A2B09D17B6800221A63FC
:1035E4007B68282283F83D207868FCF7C5FF7B6858
:1035F40093F83D30DBB2282B11D17B68154ADA628F
:103604007B6800221A637B68202283F83D207B6854
:10361400002283F83E207868FCF7C4FF14E07B683E
:103624001B6B222B02D0FB7B222B0DD17B6800224B
:103634001A637B68202283F83D207B68002283F88C
:103644003E207868FCF798FF00BF1037BD4680BD68
:10365400A13900080000FFFF80B584B000AF786096
:103664007B6893F83D30FB737B68DB6ABB60BB68A7
:10367400082B02D0BB68202B29D1FB7B282B26D119
:103684007B682C4ADA627B681B685A687B681B6813
:1036940022F4E0625A607B681B686FF480625A61AE
:1036A4007B681B681A687B681B6822F480621A6056
:1036B4007B6800221A637B68202283F83D207B68A4
:1036C400002283F83E207868FCF76CFF2EE0FB7B39
:1036D400212B26D17B68174ADA627B6821221A6380
:1036E4007B68202283F83D207B68002283F83E20FB
:1036F4007B681B685A687B681B6822F4E0625A6026
:103704007B681B686FF480625A617B681B681A6867
:103714007B681B6822F480621A607868FCF737FFC4
:1037240004E07B681B686FF480625A6100BF103745
:10373400BD4680BD0000FFFF80B584B000AF786057
:103744007B6893F83D30FB737B6893F83E30BB7322
:10375400BB7B102B02D0BB7B402B0AD1FB7B222BE3
:1037640007D17B681B681A687B681B6822F40062B7
:103774001A60FB7B03F02803282B07D17B68002207
:103784001A637B68282283F83D2015E07B681B6858
:103794005B6803F40063B3F5006F0AD0FB7B602B16
:1037A40007D07B68202283F83D207B68002283F8C1
:1037B4003E207B6800221A637B681B685B6803F405
:1037C4000063B3F5006F62D17B681B685A687B683D
:1037D4001B6822F400625A607B685B6B93F8353097
:1037E400DBB2012B20D07B685B6B6A4A1A657B686D
:1037F4005B6B1846FEF7F1F80346002B00F0898056
:103804007B681B681A687B681B6822F001021A60D7
:103814007B68202283F83D207B685B6B1B6D7A6894
:10382400526B1046984774E07B689B6B594A1A6543
:103834007B689B6B1846FEF7D0F80346002B68D0D4
:103844007B681B685B6903F04003402B0BD17B68EA
:103854001B681A697B685B6AD2B21A707B685B6A00
:103864005A1C7B685A627B681B681A687B681B68F1
:1038740022F001021A607B68202283F83D207B68D5
:103884009B6B1B6D7A68926B1046984741E07B688E
:1038940093F83D30DBB2602B25D17B68202283F87E
:1038A4003D207B6800221A647B681B685B6903F017
:1038B4004003402B0BD17B681B681A697B685B6AE9
:1038C400D2B21A707B685B6A5A1C7B685A627B6846
:1038D4001B681A687B681B6822F001021A6078680A
:1038E400FEF7E0FE15E07B681B685B6903F04003AC
:1038F400402B0BD17B681B681A697B685B6AD2B268
:103904001A707B685B6A5A1C7B685A627868FCF799
:1039140054FE7B681B6CBB60BB6803F00103002B87
:103924000ED1BB6803F00203002B09D1BB6803F07E
:103934000403002B04D1BB6803F00803002B07D059
:103944007B681B685A687B681B6822F4E0625A60D3
:103954007B6893F83D30FB737B681B6C03F00403B6
:10396400042B13D1FB7B282B10D17B680A4ADA6223
:103974007B6800221A637B68202283F83D207B68E1
:10398400002283F83E207868FCF70CFE00BF103755
:10399400BD4680BDA13900080000FFFF80B586B098
:1039A40000AF78600023FB607B689B6B7B617B6965
:1039B40093F83D30FB744B4B1B68DB084A4AA2FB6F
:1039C40003231A0A13469B001344DA00D31AFB603C
:1039D400FB68002B06D17B691B6C43F020027B69DA
:1039E4001A640AE0FB68013BFB607B691B681B6887
:1039F40003F40073B3F5007FEAD07B695B6B002BA3
:103A040003D07B695B6B0022DA637B699B6B002BC1
:103A140003D07B699B6B0022DA637B691B681A689D
:103A24007B691B6822F480621A607B6900225A85D4
:103A34007B695B6B002B03D07B695B6B00221A658F
:103A44007B699B6B002B03D07B699B6B00221A65FF
:103A54007B691B681A687B691B6822F001021A6083
:103A64007B6993F83D30DBB2602B0ED17B69202259
:103A740083F83D207B69002283F83E207B69002285
:103A84001A647869FEF70EFE27E0FB7C03F0280336
:103A9400282B17D17B691B681A687B691B6842F065
:103AA40001021A607B691B681A687B691B6842F40F
:103AB40080621A607B6900221A637B69282283F87A
:103AC4003D2007E07B69202283F83D207B690022AA
:103AD40083F83E207869FCF770FD00BF1837BD46B7
:103AE40080BD00BF0000002089B5F81480B485B003
:103AF40000AF78600023FB60134B1B68DB08134A9C
:103B0400A2FB03231A0A13469B001344FB60FB68C1
:103B1400013BFB60FB68002B07D17B681B6C43F007
:103B240020027B681A64012308E07B681B681B6819
:103B340003F40073B3F5007FE9D00023184614376B
:103B4400BD465DF8047B70470000002089B5F81479
:103B540080B483B000AF78607B68DB6AB3F52A0F6A
:103B640003D17B680122DA6207E07B68DB6AB3F188
:103B74002A4F02D17B680822DA6200BF0C37BD46A7
:103B84005DF8047B7047000080B584B000AF7860B6
:103B940039607B68002B01D10123CCE0684B1B68A2
:103BA40003F00F033A689A420CD9654B3A68D2B2D3
:103BB4001A70634B1B6803F00F033A689A4201D0F2
:103BC4000123B8E07B681B6803F00203002B20D0BC
:103BD4007B681B6803F00403002B05D0594B9B68DA
:103BE400584A43F4E05393607B681B6803F008036E
:103BF400002B05D0534B9B68524A43F460439360B7
:103C0400504B9B6823F0F0027B689B684D4913433B
:103C14008B607B681B6803F00103002B44D07B6836
:103C24005B68012B07D1474B1B6803F40033002B5F
:103C340019D101237FE07B685B68022B03D07B688A
:103C44005B68032B07D13F4B1B6803F00073002B09
:103C540009D101236FE03B4B1B6803F00203002BE7
:103C640001D1012367E0374B9B6823F003027B6893
:103C74005B68344913438B60FCF7C4FFF8600AE0C7
:103C8400FCF7C0FF0246FB68D31A41F28832934224
:103C940001D903234FE02B4B9B6803F00C027B6894
:103CA4005B689B009A42EBD1254B1B6803F00F0322
:103CB4003A689A420CD2224B3A68D2B21A70204B1C
:103CC4001B6803F00F033A689A4201D0012332E0E3
:103CD4007B681B6803F00403002B08D0194B9B6816
:103CE40023F4E0527B68DB68164913438B607B68DE
:103CF4001B6803F00803002B09D0124B9B6823F4C4
:103D040060427B681B69DB000E4913438B6000F043
:103D140041F802460B4B9B681B0903F00F030A4949
:103D2400CB5C22FA03F3094A1360094B1B6818465B
:103D3400FCF724FF002318461037BD4680BD00BFA2
:103D4400003C024000380240A44700080000002064
:103D54000400002080B400AF034B1B681846BD4626
:103D64005DF8047B704700BF0000002080B500AF01
:103D7400FFF7F0FF0246054B9B689B0A03F007031D
:103D84000349CB5C22FA03F3184680BD0038024095
:103D9400B44700082DE9B04FAEB000AF0023C7F818
:103DA400AC300023C7F8B4300023C7F8A830002390
:103DB400C7F8A4300023C7F8B030CB4B9B6803F09E
:103DC4000C030C2B00F2068201A252F823F000BF70
:103DD400093E0008D9410008D9410008D94100082A
:103DE400113E0008D9410008D9410008D941000812
:103DF400193E0008D9410008D9410008D9410008FA
:103E040009400008B94BC7F8B030E7E1B84BC7F830
:103E1400B030E3E1B44B5B6803F03F03C7F8AC3068
:103E2400B14B5B6803F48003002B71D0AE4B5B682D
:103E34009B090022C7F89830C7F89C20D7F898301F
:103E4400C3F30803C7F890300023C7F89430D7E9C8
:103E5400244522462B464FF000004FF00001590143
:103E640041EAD261500102460B462146511A396497
:103E7400294663EB01037B644FF000024FF000031B
:103E8400D7E9108949468B01414643EA916341468B
:103E94008A014146511AB963494663EB0103FB6346
:103EA4004FF000024FF00003D7E90E894946CB00DA
:103EB400414643EA51734146CA0010461946034637
:103EC40022469B183B632B460A4642EB03037B6363
:103ED4004FF000024FF00003D7E90C4529464B028E
:103EE400214643EAD15321464A0210461946D7F8DF
:103EF400AC300022C7F88830C7F88C20D7E92223D9
:103F0400FCF77EF902460B461346C7F8B43067E067
:103F1400754B5B689B090022C7F88030C7F8842082
:103F2400D7F88030C3F30803BB670023FB67D7E9E6
:103F34001E4522462B464FF000004FF00001590168
:103F440041EAD261500102460B462146511AB96238
:103F5400294663EB0103FB624FF000024FF00003BC
:103F6400D7E90A8949468B01414643EA91634146B0
:103F74008A014146B2EB010A494663EB010B4FF05B
:103F840000024FF000034FEACB0343EA5A734FEAAF
:103F9400CA0292469B4623461AEB03033B622B4616
:103FA4004BEB03037B624FF000024FF00003D7E9B1
:103FB400084529468B02214643EA915321468A0249
:103FC40010461946D7F8AC3000223B677A67D7E928
:103FD4001C23FCF715F902460B461346C7F8B43008
:103FE400414B5B681B0C03F0030301335B00C7F810
:103FF400A830D7F8B420D7F8A830B2FBF3F3C7F849
:10400400B030EBE0384B5B6803F03F03C7F8AC30EB
:10401400354B5B6803F48003002B6BD0324B5B6839
:104024009B090022BB66FA66BB6EC3F308033B66BA
:1040340000237B66D7E9184522462B464FF0000043
:104044004FF00001590141EAD261500102460B468A
:104054002146511AB961294663EB0103FB614FF014
:1040640000024FF00003D7E906AB59468B015146D5
:1040740043EA916351468A015146B2EB010859461D
:1040840063EB01094FF000024FF000034FEAC9034C
:1040940043EA58734FEAC80290469946234618EB00
:1040A40003033B612B4649EB03037B614FF00002A2
:1040B4004FF00003D7E9044529464B02214643EA61
:1040C400D15321464A0210461946D7F8AC30002293
:1040D400BB65FA65D7E91623FCF792F802460B464E
:1040E4001346C7F8B43065E0003802400024F400F9
:1040F40000127A003D4B5B689B090022184611466A
:10410400C0F308033B6500237B65D7E91489424665
:104114004B464FF000004FF00001590141EAD261D3
:10412400500102460B464146511AB960494663EBB9
:104134000103FB604FF000024FF00003D7E902AB2C
:1041440059468B01514643EA916351468A015146CF
:10415400541A594663EB01054FF000024FF0000377
:10416400EB0043EA5473E20014461D464346E31849
:104174003B604B4645EB03037B604FF000024FF07E
:104184000003D7E9004529468B02214643EA9153AF
:1041940021468A0210461946D7F8AC300022BB6487
:1041A400FA64D7E91223FCF72BF802460B461346B0
:1041B400C7F8B4300D4B5B681B0F03F00703C7F857
:1041C400A430D7F8B420D7F8A430B2FBF3F3C7F87F
:1041D400B03003E0064BC7F8B03000BFD7F8B030BA
:1041E4001846B837BD46BDE8B08F00BF003802405E
:1041F4000024F40080B586B000AF78607B68002BA3
:1042040001D101238DE27B681B6803F00103002BBD
:1042140000F08380944B9B6803F00C03042B19D0AB
:10422400914B9B6803F00C03082B06D18E4B5B6803
:1042340003F48003B3F5800F0CD08B4B9B6803F021
:104244000C030C2B12D1884B5B6803F48003B3F589
:10425400800F0BD1844B1B6803F40033002B5BD01D
:104264007B685B68002B57D101235AE27B685B684B
:10427400B3F5803F06D17C4B1B687B4A43F4803303
:1042840013601DE07B685B68B3F5A02F0CD1764BFF
:104294001B68754A43F480231360734B1B68724A8E
:1042A40043F4803313600BE06F4B1B686E4A23F4B6
:1042B400803313606C4B1B686B4A23F480231360B8
:1042C4007B685B68002B13D0FCF79CFC386108E02A
:1042D400FCF798FC02463B69D31A642B01D90323EB
:1042E4001FE2614B1B6803F40033002BF0D014E091
:1042F400FCF788FC386108E0FCF784FC02463B6963
:10430400D31A642B01D903230BE2574B1B6803F424
:104314000033002BF0D100E000BF7B681B6803F082
:104324000203002B6FD0504B9B6803F00C03002B4F
:1043340017D04D4B9B6803F00C03082B05D14A4B57
:104344005B6803F48003002B0BD0474B9B6803F09E
:104354000C030C2B1CD1444B5B6803F48003002B2F
:1043640016D1414B1B6803F00203002B05D07B6878
:10437400DB68012B01D00123D3E13B4B1B6823F005
:10438400F8027B681B69DB00374913430B603AE092
:104394007B68DB68002B20D0344B01221A60FCF7C9
:1043A40031FC386108E0FCF72DFC02463B69D31A66
:1043B400022B01D90323B4E12B4B1B6803F0020346
:1043C400002BF0D0284B1B6823F0F8027B681B6994
:1043D400DB00254913430B6015E0244B00221A60CF
:1043E400FCF710FC386108E0FCF70CFC02463B6962
:1043F400D31A022B01D9032393E11B4B1B6803F04F
:104404000203002BF0D17B681B6803F00803002B28
:1044140036D07B685B69002B16D0154B01221A60DD
:10442400FCF7F0FB386108E0FCF7ECFB02463B6963
:10443400D31A022B01D9032373E10B4B5B6F03F0F7
:104444000203002BF0D01BE0094B00221A60FCF79A
:10445400D9FB38610EE0FCF7D5FB02463B69D31A61
:10446400022B07D903235CE10038024000004742D5
:10447400800E47428A4B5B6F03F00203002BEAD1A4
:104484007B681B6803F00403002B00F09780002373
:10449400FB75834B1B6C03F08053002B0FD100235F
:1044A400BB607F4B1B6C7E4A43F0805313647C4B90
:1044B4001B6C03F08053BB60BB680123FB75794B15
:1044C4001B6803F48073002B18D1764B1B68754A64
:1044D40043F480731360FCF795FB386108E0FCF744
:1044E40091FB02463B69D31A022B01D9032318E13D
:1044F4006C4B1B6803F48073002BF0D07B689B68C3
:10450400012B06D1664B1B6F654A43F00103136709
:104514001CE07B689B68052B0CD1614B1B6F604AC8
:1045240043F0040313675E4B1B6F5D4A43F00103C2
:1045340013670BE05A4B1B6F594A23F001031367AF
:10454400574B1B6F564A23F0040313677B689B6821
:10455400002B15D0FCF756FB38610AE0FCF752FB40
:1045640002463B69D31A41F28832934201D90323AC
:10457400D7E04B4B1B6F03F00203002BEED014E08B
:10458400FCF740FB38610AE0FCF73CFB02463B6960
:10459400D31A41F28832934201D90323C1E0404B3C
:1045A4001B6F03F00203002BEED1FB7D012B05D121
:1045B4003B4B1B6C3A4A23F0805313647B689B6922
:1045C400002B00F0AD80364B9B6803F00C03082BE6
:1045D40060D07B689B69022B45D1334B00221A6063
:1045E400FCF710FB386108E0FCF70CFB02463B6962
:1045F400D31A022B01D9032393E0294B1B6803F040
:104604000073002BF0D17B68DA697B681B6A1A435C
:104614007B685B6A9B011A437B689B6A5B08013B6E
:104624001B041A437B68DB6A1B061A437B681B6BFB
:104634001B071B4913434B601B4B01221A60FCF7F9
:10464400E1FA386108E0FCF7DDFA02463B69D31A67
:10465400022B01D9032364E0114B1B6803F00073A0
:10466400002BF0D05CE0104B00221A60FCF7CAFA71
:10467400386108E0FCF7C6FA02463B69D31A022BFC
:1046840001D903234DE0064B1B6803F00073002B94
:10469400F0D145E07B689B69012B07D1012340E001
:1046A4000038024000700040600047421F4B5B68C6
:1046B400FB607B689B69012B30D0FB6803F48002AC
:1046C4007B68DB699A4229D1FB6803F03F027B686F
:1046D4001B6A9A4222D1FA6847F6C07313407A687B
:1046E400526A9201934219D1FB6803F440327B6809
:1046F4009B6A5B08013B1B049A420FD1FB6803F0E1
:1047040070627B68DB6A1B069A4207D1FB6803F080
:10471400E0427B681B6B1B079A4201D0012300E037
:10472400002318461837BD4680BD00BF003802403C
:1047340070B50D4D0D4C641BA4100026A64209D182
:104744000B4D0C4C00F020F8641BA4100026A6426C
:1047540005D170BD55F8043B98470136EEE755F88E
:10476400043B98470136F2E7C4470008C4470008F1
:10477400C4470008C847000802440346934200D1D6
:10478400704703F8011BF9E7F8B500BFF8BC08BC93
:104794009E467047F8B500BFF8BC08BC9E467047FB
:1047A40000000000000000000102030406070809DD
:0847B4000000000001020304F3
:0847BC0078BAFF7F0100000044
:0447C400E9010008FF
:0447C800C50100081F
:0C47CC000024F4001000000001000000B8
:0400000508000AE9FC
:00000001FF
